20241218-13:35:57.000000000 : 8=FIXT.1.1|9=83|35=A|34=1|49=HASHPROD|52=20241218-13:35:57.000|56=BBGPROD|98=0|108=30|141=Y|1137=9|10=020|
20241218-13:35:57.000000000 : 8=FIXT.1.1|9=83|35=A|34=1|49=BBGPROD|52=20241218-13:35:57.000|56=HASHPROD|98=0|108=30|141=Y|1137=9|10=020|
20241218-13:36:00.000000000 : 8=FIXT.1.1|9=272|35=X|34=2|49=HASHPROD|52=20241218-13:36:00.000|56=BBGPROD|268=2|279=|22=4|48=HMETAIV|269=|270=9.42|271=10|299=13169192678404696254|423=9|1018=0|1070=0|1500=5|279=|22=4|48=HMETAIV|269=|270=9.42|271=10|299=13169192678404696254|423=9|1018=0|1070=0|1500=5|963=43030|1022=HASH|10=153|
20241218-13:36:00.000000000 : 8=FIXT.1.1|9=124|35=3|34=2|49=BBGPROD|52=20241218-13:36:00.000|56=HASHPROD|45=2|58=Tag not defined for this message type|371=963|372=X|373=2|10=127|
20241218-13:36:03.000000000 : 8=FIXT.1.1|9=272|35=X|34=3|49=HASHPROD|52=20241218-13:36:03.000|56=BBGPROD|268=2|279=|22=4|48=HMETAIV|269=|270=9.42|271=10|299=13169192678404696254|423=9|1018=0|1070=0|1500=5|279=|22=4|48=HMETAIV|269=|270=9.42|271=10|299=13169192678404696254|423=9|1018=0|1070=0|1500=5|963=43030|1022=HASH|10=157|
20241218-13:36:03.000000000 : 8=FIXT.1.1|9=124|35=3|34=3|49=BBGPROD|52=20241218-13:36:03.000|56=HASHPROD|45=3|58=Tag not defined for this message type|371=963|372=X|373=2|10=132|
20241218-13:36:06.000000000 : 8=FIXT.1.1|9=272|35=X|34=4|49=HASHPROD|52=20241218-13:36:06.000|56=BBGPROD|268=2|279=|22=4|48=HMETAIV|269=|270=9.42|271=10|299=13169192678404696254|423=9|1018=0|1070=0|1500=5|279=|22=4|48=HMETAIV|269=|270=9.42|271=10|299=13169192678404696254|423=9|1018=0|1070=0|1500=5|963=43030|1022=HASH|10=161|
20241218-13:36:06.000000000 : 8=FIXT.1.1|9=124|35=3|34=4|49=BBGPROD|52=20241218-13:36:06.000|56=HASHPROD|45=4|58=Tag not defined for this message type|371=963|372=X|373=2|10=137|
20241218-13:36:06.000000000 : 8=FIXT.1.1|9=58|35=5|34=5|49=HASHPROD|52=20241218-13:36:06.000|56=BBGPROD|10=128|
20241218-13:36:06.000000000 : 8=FIXT.1.1|9=58|35=5|34=5|49=BBGPROD|52=20241218-13:36:06.000|56=HASHPROD|10=128|
20241218-13:38:18.000000000 : 8=FIXT.1.1|9=83|35=A|34=1|49=HASHPROD|52=20241218-13:38:18.000|56=BBGPROD|98=0|108=30|141=Y|1137=9|10=020|
20241218-13:38:18.000000000 : 8=FIXT.1.1|9=83|35=A|34=1|49=BBGPROD|52=20241218-13:38:18.000|56=HASHPROD|98=0|108=30|141=Y|1137=9|10=020|
20241218-13:38:21.000000000 : 8=FIXT.1.1|9=178|35=X|34=2|49=HASHPROD|52=20241218-13:38:21.000|56=BBGPROD|10=153|268=1|279=|22=4|48=HMETAIV|269=|270=9.42|271=10|299=13169192678404696254|423=9|1018=0|1070=0|1500=5|963=43030|1022=HASH|10=194|
20241218-13:38:24.000000000 : 8=FIXT.1.1|9=178|35=X|34=3|49=HASHPROD|52=20241218-13:38:24.000|56=BBGPROD|10=153|268=1|279=|22=4|48=HMETAIV|269=|270=9.42|271=10|299=13169192678404696254|423=9|1018=0|1070=0|1500=5|963=43030|1022=HASH|10=198|
20241218-13:38:27.000000000 : 8=FIXT.1.1|9=178|35=X|34=4|49=HASHPROD|52=20241218-13:38:27.000|56=BBGPROD|10=153|268=1|279=|22=4|48=HMETAIV|269=|270=9.42|271=10|299=13169192678404696254|423=9|1018=0|1070=0|1500=5|963=43030|1022=HASH|10=202|
20241218-13:38:30.000000000 : 8=FIXT.1.1|9=178|35=X|34=5|49=HASHPROD|52=20241218-13:38:30.000|56=BBGPROD|10=153|268=1|279=|22=4|48=HMETAIV|269=|270=9.42|271=10|299=13169192678404696254|423=9|1018=0|1070=0|1500=5|963=43030|1022=HASH|10=197|
20241218-13:38:33.000000000 : 8=FIXT.1.1|9=178|35=X|34=6|49=HASHPROD|52=20241218-13:38:33.000|56=BBGPROD|10=153|268=1|279=|22=4|48=HMETAIV|269=|270=9.42|271=10|299=13169192678404696254|423=9|1018=0|1070=0|1500=5|963=43030|1022=HASH|10=201|
20241218-13:38:36.000000000 : 8=FIXT.1.1|9=178|35=X|34=7|49=HASHPROD|52=20241218-13:38:36.000|56=BBGPROD|10=153|268=1|279=|22=4|48=HMETAIV|269=|270=9.42|271=10|299=13169192678404696254|423=9|1018=0|1070=0|1500=5|963=43030|1022=HASH|10=205|
20241218-13:38:38.000000000 : 8=FIXT.1.1|9=58|35=5|34=8|49=HASHPROD|52=20241218-13:38:38.000|56=BBGPROD|10=138|
20241218-13:38:38.000000000 : 8=FIXT.1.1|9=58|35=5|34=2|49=BBGPROD|52=20241218-13:38:38.000|56=HASHPROD|10=132|
20241218-13:38:51.000000000 : 8=FIXT.1.1|9=83|35=A|34=1|49=HASHPROD|52=20241218-13:38:51.000|56=BBGPROD|98=0|108=30|141=Y|1137=9|10=017|
20241218-13:38:52.000000000 : 8=FIXT.1.1|9=83|35=A|34=1|49=BBGPROD|52=20241218-13:38:52.000|56=HASHPROD|98=0|108=30|141=Y|1137=9|10=018|
20241218-13:38:54.000000000 : 8=FIXT.1.1|9=178|35=X|34=2|49=HASHPROD|52=20241218-13:38:54.000|56=BBGPROD|10=153|268=1|279=|22=4|48=HMETAIV|269=|270=9.42|271=10|299=13169192678404696254|423=9|1018=0|1070=0|1500=5|963=43030|1022=HASH|10=200|
20241218-13:38:57.000000000 : 8=FIXT.1.1|9=178|35=X|34=3|49=HASHPROD|52=20241218-13:38:57.000|56=BBGPROD|10=153|268=1|279=|22=4|48=HMETAIV|269=|270=9.42|271=10|299=13169192678404696254|423=9|1018=0|1070=0|1500=5|963=43030|1022=HASH|10=204|
20241218-13:39:00.000000000 : 8=FIXT.1.1|9=58|35=5|34=4|49=HASHPROD|52=20241218-13:39:00.000|56=BBGPROD|10=124|
20241218-13:39:00.000000000 : 8=FIXT.1.1|9=58|35=5|34=2|49=BBGPROD|52=20241218-13:39:00.000|56=HASHPROD|10=122|
