20241201-23:12:44.000000000 : 8=FIXT.1.1|9=80|35=A|34=1|49=CLIENT|52=20241201-23:12:44.000|56=SERVER|98=0|108=30|141=Y|1137=9|10=062|
20241201-23:12:44.000000000 : 8=FIXT.1.1|9=80|35=A|34=1|49=SERVER|52=20241201-23:12:44.000|56=CLIENT|98=0|108=30|141=Y|1137=9|10=062|
20241201-23:12:49.000000000 : 8=FIXT.1.1|9=55|35=5|34=2|49=CLIENT|52=20241201-23:12:49.000|56=SERVER|10=177|
20241201-23:12:49.000000000 : 8=FIXT.1.1|9=55|35=5|34=2|49=SERVER|52=20241201-23:12:49.000|56=CLIENT|10=177|
20241201-23:25:31.000000000 : 8=FIXT.1.1|9=80|35=A|34=1|49=CLIENT|52=20241201-23:25:31.000|56=SERVER|98=0|108=30|141=Y|1137=9|10=062|
20241201-23:25:31.000000000 : 8=FIXT.1.1|9=80|35=A|34=1|49=SERVER|52=20241201-23:25:31.000|56=CLIENT|98=0|108=30|141=Y|1137=9|10=062|
20241201-23:25:36.000000000 : 8=FIXT.1.1|9=55|35=5|34=2|49=CLIENT|52=20241201-23:25:36.000|56=SERVER|10=177|
20241201-23:25:36.000000000 : 8=FIXT.1.1|9=55|35=5|34=2|49=SERVER|52=20241201-23:25:36.000|56=CLIENT|10=177|
20241201-23:32:58.000000000 : 8=FIXT.1.1|9=80|35=A|34=1|49=CLIENT|52=20241201-23:32:58.000|56=SERVER|98=0|108=30|141=Y|1137=9|10=069|
20241201-23:32:58.000000000 : 8=FIXT.1.1|9=80|35=A|34=1|49=SERVER|52=20241201-23:32:58.000|56=CLIENT|98=0|108=30|141=Y|1137=9|10=069|
20241201-23:33:04.000000000 : 8=FIXT.1.1|9=55|35=5|34=2|49=CLIENT|52=20241201-23:33:04.000|56=SERVER|10=171|
20241201-23:33:04.000000000 : 8=FIXT.1.1|9=55|35=5|34=2|49=SERVER|52=20241201-23:33:04.000|56=CLIENT|10=171|
20241201-23:34:33.000000000 : 8=FIXT.1.1|9=80|35=A|34=1|49=CLIENT|52=20241201-23:34:33.000|56=SERVER|98=0|108=30|141=Y|1137=9|10=064|
20241201-23:34:33.000000000 : 8=FIXT.1.1|9=80|35=A|34=1|49=SERVER|52=20241201-23:34:33.000|56=CLIENT|98=0|108=30|141=Y|1137=9|10=064|
20241201-23:34:38.000000000 : 8=FIXT.1.1|9=55|35=5|34=2|49=CLIENT|52=20241201-23:34:38.000|56=SERVER|10=179|
20241201-23:34:38.000000000 : 8=FIXT.1.1|9=55|35=5|34=2|49=SERVER|52=20241201-23:34:38.000|56=CLIENT|10=179|
20241201-23:36:41.000000000 : 8=FIXT.1.1|9=80|35=A|34=1|49=CLIENT|52=20241201-23:36:41.000|56=SERVER|98=0|108=30|141=Y|1137=9|10=065|
20241201-23:36:41.000000000 : 8=FIXT.1.1|9=80|35=A|34=1|49=SERVER|52=20241201-23:36:41.000|56=CLIENT|98=0|108=30|141=Y|1137=9|10=065|
20241201-23:36:46.000000000 : 8=FIXT.1.1|9=55|35=5|34=2|49=CLIENT|52=20241201-23:36:46.000|56=SERVER|10=180|
20241201-23:36:46.000000000 : 8=FIXT.1.1|9=55|35=5|34=2|49=SERVER|52=20241201-23:36:46.000|56=CLIENT|10=180|
20241201-23:38:57.000000000 : 8=FIXT.1.1|9=80|35=A|34=1|49=CLIENT|52=20241201-23:38:57.000|56=SERVER|98=0|108=30|141=Y|1137=9|10=074|
20241201-23:38:57.000000000 : 8=FIXT.1.1|9=80|35=A|34=1|49=SERVER|52=20241201-23:38:57.000|56=CLIENT|98=0|108=30|141=Y|1137=9|10=074|
20241201-23:39:02.000000000 : 8=FIXT.1.1|9=55|35=5|34=2|49=CLIENT|52=20241201-23:39:02.000|56=SERVER|10=175|
20241201-23:39:02.000000000 : 8=FIXT.1.1|9=55|35=5|34=2|49=SERVER|52=20241201-23:39:02.000|56=CLIENT|10=175|
20241201-23:39:21.000000000 : 8=FIXT.1.1|9=80|35=A|34=1|49=CLIENT|52=20241201-23:39:21.000|56=SERVER|98=0|108=30|141=Y|1137=9|10=066|
20241201-23:39:21.000000000 : 8=FIXT.1.1|9=80|35=A|34=1|49=SERVER|52=20241201-23:39:21.000|56=CLIENT|98=0|108=30|141=Y|1137=9|10=066|
20241201-23:39:27.000000000 : 8=FIXT.1.1|9=55|35=5|34=2|49=CLIENT|52=20241201-23:39:27.000|56=SERVER|10=182|
20241201-23:39:27.000000000 : 8=FIXT.1.1|9=55|35=5|34=2|49=SERVER|52=20241201-23:39:27.000|56=CLIENT|10=182|
20241201-23:40:11.000000000 : 8=FIXT.1.1|9=80|35=A|34=1|49=CLIENT|52=20241201-23:40:11.000|56=SERVER|98=0|108=30|141=Y|1137=9|10=057|
20241201-23:40:11.000000000 : 8=FIXT.1.1|9=80|35=A|34=1|49=SERVER|52=20241201-23:40:11.000|56=CLIENT|98=0|108=30|141=Y|1137=9|10=057|
20241201-23:40:16.000000000 : 8=FIXT.1.1|9=55|35=5|34=2|49=CLIENT|52=20241201-23:40:16.000|56=SERVER|10=172|
20241201-23:40:16.000000000 : 8=FIXT.1.1|9=55|35=5|34=2|49=SERVER|52=20241201-23:40:16.000|56=CLIENT|10=172|
20241201-23:40:47.000000000 : 8=FIXT.1.1|9=80|35=A|34=1|49=CLIENT|52=20241201-23:40:47.000|56=SERVER|98=0|108=30|141=Y|1137=9|10=066|
20241201-23:40:47.000000000 : 8=FIXT.1.1|9=80|35=A|34=1|49=SERVER|52=20241201-23:40:47.000|56=CLIENT|98=0|108=30|141=Y|1137=9|10=066|
20241201-23:40:52.000000000 : 8=FIXT.1.1|9=142|35=D|34=2|49=CLIENT|52=20241201-23:40:52.000|56=SERVER|21=3|38=10000|40=2|44=100|54=1|55=MSFT|58=NewOrderSingle|59=0|60=20241201-20:40:52.010|10=231|
20241201-23:40:52.000000000 : 8=FIXT.1.1|9=103|35=3|34=2|49=SERVER|52=20241201-23:40:52.000|56=CLIENT|45=2|58=Required tag missing|371=11|372=D|373=1|10=116|
20241201-23:41:02.000000000 : 8=FIXT.1.1|9=55|35=5|34=3|49=CLIENT|52=20241201-23:41:02.000|56=SERVER|10=169|
20241201-23:41:02.000000000 : 8=FIXT.1.1|9=55|35=5|34=3|49=SERVER|52=20241201-23:41:02.000|56=CLIENT|10=169|
20241201-23:45:30.000000000 : 8=FIXT.1.1|9=80|35=A|34=1|49=CLIENT|52=20241201-23:45:30.000|56=SERVER|98=0|108=30|141=Y|1137=9|10=063|
20241201-23:45:30.000000000 : 8=FIXT.1.1|9=80|35=A|34=1|49=SERVER|52=20241201-23:45:30.000|56=CLIENT|98=0|108=30|141=Y|1137=9|10=063|
20241201-23:45:35.000000000 : 8=FIXT.1.1|9=55|35=5|34=2|49=CLIENT|52=20241201-23:45:35.000|56=SERVER|10=178|
20241201-23:45:35.000000000 : 8=FIXT.1.1|9=55|35=5|34=2|49=SERVER|52=20241201-23:45:35.000|56=CLIENT|10=178|
20241201-23:46:57.000000000 : 8=FIXT.1.1|9=80|35=A|34=1|49=CLIENT|52=20241201-23:46:57.000|56=SERVER|98=0|108=30|141=Y|1137=9|10=073|
20241201-23:46:57.000000000 : 8=FIXT.1.1|9=80|35=A|34=1|49=SERVER|52=20241201-23:46:57.000|56=CLIENT|98=0|108=30|141=Y|1137=9|10=073|
20241201-23:47:02.000000000 : 8=FIXT.1.1|9=55|35=5|34=2|49=CLIENT|52=20241201-23:47:02.000|56=SERVER|10=174|
20241201-23:47:02.000000000 : 8=FIXT.1.1|9=55|35=5|34=2|49=SERVER|52=20241201-23:47:02.000|56=CLIENT|10=174|
20241201-23:47:43.000000000 : 8=FIXT.1.1|9=80|35=A|34=1|49=CLIENT|52=20241201-23:47:43.000|56=SERVER|98=0|108=30|141=Y|1137=9|10=069|
20241201-23:47:43.000000000 : 8=FIXT.1.1|9=80|35=A|34=1|49=SERVER|52=20241201-23:47:43.000|56=CLIENT|98=0|108=30|141=Y|1137=9|10=069|
20241201-23:47:48.000000000 : 8=FIXT.1.1|9=55|35=5|34=2|49=CLIENT|52=20241201-23:47:48.000|56=SERVER|10=184|
20241201-23:47:48.000000000 : 8=FIXT.1.1|9=55|35=5|34=2|49=SERVER|52=20241201-23:47:48.000|56=CLIENT|10=184|
20241201-23:48:10.000000000 : 8=FIXT.1.1|9=80|35=A|34=1|49=CLIENT|52=20241201-23:48:10.000|56=SERVER|98=0|108=30|141=Y|1137=9|10=064|
20241201-23:48:10.000000000 : 8=FIXT.1.1|9=80|35=A|34=1|49=SERVER|52=20241201-23:48:10.000|56=CLIENT|98=0|108=30|141=Y|1137=9|10=064|
20241201-23:48:15.000000000 : 8=FIXT.1.1|9=55|35=5|34=2|49=CLIENT|52=20241201-23:48:15.000|56=SERVER|10=179|
20241201-23:48:15.000000000 : 8=FIXT.1.1|9=55|35=5|34=2|49=SERVER|52=20241201-23:48:15.000|56=CLIENT|10=179|
20241201-23:48:43.000000000 : 8=FIXT.1.1|9=80|35=A|34=1|49=CLIENT|52=20241201-23:48:43.000|56=SERVER|98=0|108=30|141=Y|1137=9|10=070|
20241201-23:48:43.000000000 : 8=FIXT.1.1|9=80|35=A|34=1|49=SERVER|52=20241201-23:48:43.000|56=CLIENT|98=0|108=30|141=Y|1137=9|10=070|
20241201-23:48:48.000000000 : 8=FIXT.1.1|9=207|35=X|34=2|49=CLIENT|52=20241201-23:48:48.000|56=SERVER|10=193|11=12345|38=10|44=9.42|55=HMETAIV|58=Custom FIX message|167=4|268=2|269=0|279=0|299=13169192678404696254|423=9|963=43030|1018=0|1022=HASH|1070=0|1500=5|10=005|
20241201-23:48:58.000000000 : 8=FIXT.1.1|9=55|35=5|34=3|49=CLIENT|52=20241201-23:48:58.000|56=SERVER|10=187|
20241201-23:48:58.000000000 : 8=FIXT.1.1|9=55|35=5|34=2|49=SERVER|52=20241201-23:48:58.000|56=CLIENT|10=186|
20241201-23:50:23.000000000 : 8=FIXT.1.1|9=80|35=A|34=1|49=CLIENT|52=20241201-23:50:23.000|56=SERVER|98=0|108=30|141=Y|1137=9|10=061|
20241201-23:50:23.000000000 : 8=FIXT.1.1|9=80|35=A|34=1|49=SERVER|52=20241201-23:50:23.000|56=CLIENT|98=0|108=30|141=Y|1137=9|10=061|
20241201-23:50:28.000000000 : 8=FIXT.1.1|9=207|35=X|34=2|49=CLIENT|52=20241201-23:50:28.000|56=SERVER|10=193|11=12345|38=10|44=9.42|55=HMETAIV|58=Custom FIX message|167=4|268=2|269=0|279=0|299=13169192678404696254|423=9|963=43030|1018=0|1022=HASH|1070=0|1500=5|10=252|
20241201-23:50:43.000000000 : 8=FIXT.1.1|9=207|35=X|34=3|49=CLIENT|52=20241201-23:50:43.000|56=SERVER|10=193|11=12345|38=10|44=9.42|55=HMETAIV|58=Custom FIX message|167=4|268=2|269=0|279=0|299=13169192678404696254|423=9|963=43030|1018=0|1022=HASH|1070=0|1500=5|10=250|
20241201-23:50:53.000000000 : 8=FIXT.1.1|9=55|35=0|34=2|49=SERVER|52=20241201-23:50:53.000|56=CLIENT|10=169|
20241201-23:51:23.000000000 : 8=FIXT.1.1|9=80|35=A|34=1|49=CLIENT|52=20241201-23:51:23.000|56=SERVER|98=0|108=30|141=Y|1137=9|10=062|
20241201-23:51:23.000000000 : 8=FIXT.1.1|9=80|35=A|34=1|49=SERVER|52=20241201-23:51:23.000|56=CLIENT|98=0|108=30|141=Y|1137=9|10=062|
20241201-23:51:23.000000000 : 8=FIXT.1.1|9=80|35=A|34=1|49=CLIENT|52=20241201-23:51:23.000|56=SERVER|98=0|108=30|141=Y|1137=9|10=062|
20241201-23:51:23.000000000 : 8=FIXT.1.1|9=80|35=A|34=1|49=SERVER|52=20241201-23:51:23.000|56=CLIENT|98=0|108=30|141=Y|1137=9|10=062|
20241202-00:22:40.000000000 : 8=FIXT.1.1|9=80|35=A|34=1|49=CLIENT|52=20241202-00:22:40.000|56=SERVER|98=0|108=30|141=Y|1137=9|10=055|
20241202-00:22:40.000000000 : 8=FIXT.1.1|9=80|35=A|34=1|49=SERVER|52=20241202-00:22:40.000|56=CLIENT|98=0|108=30|141=Y|1137=9|10=055|
20241202-00:22:45.000000000 : 8=FIXT.1.1|9=207|35=X|34=2|49=CLIENT|52=20241202-00:22:45.000|56=SERVER|10=193|11=12345|38=10|44=9.42|55=HMETAIV|58=Custom FIX message|167=4|268=2|269=0|279=0|299=13169192678404696254|423=9|963=43030|1018=0|1022=HASH|1070=0|1500=5|10=246|
20241202-00:23:00.000000000 : 8=FIXT.1.1|9=207|35=X|34=3|49=CLIENT|52=20241202-00:23:00.000|56=SERVER|10=193|11=12345|38=10|44=9.42|55=HMETAIV|58=Custom FIX message|167=4|268=2|269=0|279=0|299=13169192678404696254|423=9|963=43030|1018=0|1022=HASH|1070=0|1500=5|10=239|
20241202-00:23:10.000000000 : 8=FIXT.1.1|9=55|35=0|34=2|49=SERVER|52=20241202-00:23:10.000|56=CLIENT|10=158|
20241202-00:23:15.000000000 : 8=FIXT.1.1|9=207|35=X|34=4|49=CLIENT|52=20241202-00:23:15.000|56=SERVER|10=193|11=12345|38=10|44=9.42|55=HMETAIV|58=Custom FIX message|167=4|268=2|269=0|279=0|299=13169192678404696254|423=9|963=43030|1018=0|1022=HASH|1070=0|1500=5|10=246|
20241202-00:23:16.000000000 : 8=FIXT.1.1|9=64|35=1|34=3|49=SERVER|52=20241202-00:23:16.000|56=CLIENT|112=TEST|10=184|
20241202-00:23:16.000000000 : 8=FIXT.1.1|9=64|35=0|34=5|49=CLIENT|52=20241202-00:23:16.000|56=SERVER|112=TEST|10=185|
20241202-00:23:16.000000000 : 8=FIXT.1.1|9=64|35=2|34=4|49=SERVER|52=20241202-00:23:16.000|56=CLIENT|7=2|16=0|10=036|
20241202-00:23:31.000000000 : 8=FIXT.1.1|9=207|35=X|34=6|49=CLIENT|52=20241202-00:23:31.000|56=SERVER|10=193|11=12345|38=10|44=9.42|55=HMETAIV|58=Custom FIX message|167=4|268=2|269=0|279=0|299=13169192678404696254|423=9|963=43030|1018=0|1022=HASH|1070=0|1500=5|10=246|
20241202-00:23:46.000000000 : 8=FIXT.1.1|9=207|35=X|34=7|49=CLIENT|52=20241202-00:23:46.000|56=SERVER|10=193|11=12345|38=10|44=9.42|55=HMETAIV|58=Custom FIX message|167=4|268=2|269=0|279=0|299=13169192678404696254|423=9|963=43030|1018=0|1022=HASH|1070=0|1500=5|10=253|
20241202-00:23:52.000000000 : 8=FIXT.1.1|9=64|35=1|34=8|49=CLIENT|52=20241202-00:23:52.000|56=SERVER|112=TEST|10=189|
20241202-00:24:10.000000000 : 8=FIXT.1.1|9=80|35=A|34=1|49=CLIENT|52=20241202-00:24:10.000|56=SERVER|98=0|108=30|141=Y|1137=9|10=054|
20241202-00:24:10.000000000 : 8=FIXT.1.1|9=80|35=A|34=1|49=SERVER|52=20241202-00:24:10.000|56=CLIENT|98=0|108=30|141=Y|1137=9|10=054|
20241202-00:24:16.000000000 : 8=FIXT.1.1|9=207|35=X|34=2|49=CLIENT|52=20241202-00:24:16.000|56=SERVER|10=193|11=12345|38=10|44=9.42|55=HMETAIV|58=Custom FIX message|167=4|268=2|269=0|279=0|299=13169192678404696254|423=9|963=43030|1018=0|1022=HASH|1070=0|1500=5|10=246|
20241202-00:24:31.000000000 : 8=FIXT.1.1|9=207|35=X|34=3|49=CLIENT|52=20241202-00:24:31.000|56=SERVER|10=193|11=12345|38=10|44=9.42|55=HMETAIV|58=Custom FIX message|167=4|268=2|269=0|279=0|299=13169192678404696254|423=9|963=43030|1018=0|1022=HASH|1070=0|1500=5|10=244|
20241202-00:24:40.000000000 : 8=FIXT.1.1|9=55|35=0|34=2|49=SERVER|52=20241202-00:24:40.000|56=CLIENT|10=162|
20241202-00:24:46.000000000 : 8=FIXT.1.1|9=207|35=X|34=4|49=CLIENT|52=20241202-00:24:46.000|56=SERVER|10=193|11=12345|38=10|44=9.42|55=HMETAIV|58=Custom FIX message|167=4|268=2|269=0|279=0|299=13169192678404696254|423=9|963=43030|1018=0|1022=HASH|1070=0|1500=5|10=251|
20241202-00:24:46.000000000 : 8=FIXT.1.1|9=64|35=1|34=3|49=SERVER|52=20241202-00:24:46.000|56=CLIENT|112=TEST|10=188|
20241202-00:24:46.000000000 : 8=FIXT.1.1|9=64|35=0|34=5|49=CLIENT|52=20241202-00:24:46.000|56=SERVER|112=TEST|10=189|
20241202-00:24:46.000000000 : 8=FIXT.1.1|9=64|35=2|34=4|49=SERVER|52=20241202-00:24:46.000|56=CLIENT|7=2|16=0|10=040|
20241202-00:25:01.000000000 : 8=FIXT.1.1|9=207|35=X|34=6|49=CLIENT|52=20241202-00:25:01.000|56=SERVER|10=193|11=12345|38=10|44=9.42|55=HMETAIV|58=Custom FIX message|167=4|268=2|269=0|279=0|299=13169192678404696254|423=9|963=43030|1018=0|1022=HASH|1070=0|1500=5|10=245|
20241202-00:26:51.000000000 : 8=FIXT.1.1|9=74|35=A|34=7|49=CLIENT|52=20241202-00:26:51.000|56=SERVER|98=0|108=30|1137=9|10=025|
20241202-00:26:51.000000000 : 8=FIXT.1.1|9=74|35=A|34=1|49=SERVER|52=20241202-00:26:51.000|56=CLIENT|98=0|108=30|1137=9|10=019|
20241202-00:26:51.000000000 : 8=FIXT.1.1|9=64|35=2|34=2|49=SERVER|52=20241202-00:26:51.000|56=CLIENT|7=1|16=0|10=035|
20241202-00:26:51.000000000 : 8=FIXT.1.1|9=104|35=5|34=8|49=CLIENT|52=20241202-00:26:51.000|56=SERVER|58=MsgSeqNum too low, expecting 4 but received 1|10=117|
20241202-00:26:51.000000000 : 8=FIXT.1.1|9=55|35=5|34=3|49=SERVER|52=20241202-00:26:51.000|56=CLIENT|10=172|
20241202-00:27:08.000000000 : 8=FIXT.1.1|9=80|35=A|34=1|49=CLIENT|52=20241202-00:27:08.000|56=SERVER|98=0|108=30|141=Y|1137=9|10=064|
20241202-00:27:08.000000000 : 8=FIXT.1.1|9=80|35=A|34=1|49=SERVER|52=20241202-00:27:08.000|56=CLIENT|98=0|108=30|141=Y|1137=9|10=064|
20241202-00:27:13.000000000 : 8=FIXT.1.1|9=207|35=X|34=2|49=CLIENT|52=20241202-00:27:13.000|56=SERVER|10=193|11=12345|38=10|44=9.42|55=HMETAIV|58=Custom FIX message|167=4|268=2|269=0|279=0|299=13169192678404696254|423=9|963=43030|1018=0|1022=HASH|1070=0|1500=5|10=246|
20241202-00:27:28.000000000 : 8=FIXT.1.1|9=207|35=X|34=3|49=CLIENT|52=20241202-00:27:28.000|56=SERVER|10=193|11=12345|38=10|44=9.42|55=HMETAIV|58=Custom FIX message|167=4|268=2|269=0|279=0|299=13169192678404696254|423=9|963=43030|1018=0|1022=HASH|1070=0|1500=5|10=253|
20241202-00:27:38.000000000 : 8=FIXT.1.1|9=55|35=0|34=2|49=SERVER|52=20241202-00:27:38.000|56=CLIENT|10=172|
20241202-00:27:43.000000000 : 8=FIXT.1.1|9=207|35=X|34=4|49=CLIENT|52=20241202-00:27:43.000|56=SERVER|10=193|11=12345|38=10|44=9.42|55=HMETAIV|58=Custom FIX message|167=4|268=2|269=0|279=0|299=13169192678404696254|423=9|963=43030|1018=0|1022=HASH|1070=0|1500=5|10=251|
20241202-00:27:44.000000000 : 8=FIXT.1.1|9=64|35=1|34=3|49=SERVER|52=20241202-00:27:44.000|56=CLIENT|112=TEST|10=189|
20241202-00:27:44.000000000 : 8=FIXT.1.1|9=64|35=0|34=5|49=CLIENT|52=20241202-00:27:44.000|56=SERVER|112=TEST|10=190|
20241202-00:27:44.000000000 : 8=FIXT.1.1|9=64|35=2|34=4|49=SERVER|52=20241202-00:27:44.000|56=CLIENT|7=2|16=0|10=041|
20241202-00:27:58.000000000 : 8=FIXT.1.1|9=207|35=X|34=6|49=CLIENT|52=20241202-00:27:58.000|56=SERVER|10=193|11=12345|38=10|44=9.42|55=HMETAIV|58=Custom FIX message|167=4|268=2|269=0|279=0|299=13169192678404696254|423=9|963=43030|1018=0|1022=HASH|1070=0|1500=5|10=003|
20241202-00:28:13.000000000 : 8=FIXT.1.1|9=207|35=X|34=7|49=CLIENT|52=20241202-00:28:13.000|56=SERVER|10=193|11=12345|38=10|44=9.42|55=HMETAIV|58=Custom FIX message|167=4|268=2|269=0|279=0|299=13169192678404696254|423=9|963=43030|1018=0|1022=HASH|1070=0|1500=5|10=252|
20241202-00:28:14.000000000 : 8=FIXT.1.1|9=55|35=5|34=5|49=SERVER|52=20241202-00:28:14.000|56=CLIENT|10=175|
20241202-00:28:14.000000000 : 8=FIXT.1.1|9=55|35=5|34=8|49=CLIENT|52=20241202-00:28:14.000|56=SERVER|10=178|
20241202-00:28:38.000000000 : 8=FIXT.1.1|9=80|35=A|34=1|49=CLIENT|52=20241202-00:28:38.000|56=SERVER|98=0|108=30|141=Y|1137=9|10=068|
20241202-00:28:38.000000000 : 8=FIXT.1.1|9=80|35=A|34=1|49=SERVER|52=20241202-00:28:38.000|56=CLIENT|98=0|108=30|141=Y|1137=9|10=068|
20241202-00:28:43.000000000 : 8=FIXT.1.1|9=207|35=X|34=2|49=CLIENT|52=20241202-00:28:43.000|56=SERVER|10=193|11=12345|38=10|44=9.42|55=HMETAIV|58=Custom FIX message|167=4|268=2|269=0|279=0|299=13169192678404696254|423=9|963=43030|1018=0|1022=HASH|1070=0|1500=5|10=250|
20241202-00:28:58.000000000 : 8=FIXT.1.1|9=207|35=X|34=3|49=CLIENT|52=20241202-00:28:58.000|56=SERVER|10=193|11=12345|38=10|44=9.42|55=HMETAIV|58=Custom FIX message|167=4|268=2|269=0|279=0|299=13169192678404696254|423=9|963=43030|1018=0|1022=HASH|1070=0|1500=5|10=001|
20241202-00:29:08.000000000 : 8=FIXT.1.1|9=55|35=0|34=2|49=SERVER|52=20241202-00:29:08.000|56=CLIENT|10=171|
20241202-00:29:13.000000000 : 8=FIXT.1.1|9=207|35=X|34=4|49=CLIENT|52=20241202-00:29:13.000|56=SERVER|10=193|11=12345|38=10|44=9.42|55=HMETAIV|58=Custom FIX message|167=4|268=2|269=0|279=0|299=13169192678404696254|423=9|963=43030|1018=0|1022=HASH|1070=0|1500=5|10=250|
20241202-00:29:14.000000000 : 8=FIXT.1.1|9=64|35=1|34=3|49=SERVER|52=20241202-00:29:14.000|56=CLIENT|112=TEST|10=188|
20241202-00:29:14.000000000 : 8=FIXT.1.1|9=64|35=0|34=5|49=CLIENT|52=20241202-00:29:14.000|56=SERVER|112=TEST|10=189|
20241202-00:29:14.000000000 : 8=FIXT.1.1|9=64|35=2|34=4|49=SERVER|52=20241202-00:29:14.000|56=CLIENT|7=2|16=0|10=040|
20241202-00:29:28.000000000 : 8=FIXT.1.1|9=207|35=X|34=6|49=CLIENT|52=20241202-00:29:28.000|56=SERVER|10=193|11=12345|38=10|44=9.42|55=HMETAIV|58=Custom FIX message|167=4|268=2|269=0|279=0|299=13169192678404696254|423=9|963=43030|1018=0|1022=HASH|1070=0|1500=5|10=002|
20241202-00:29:43.000000000 : 8=FIXT.1.1|9=207|35=X|34=7|49=CLIENT|52=20241202-00:29:43.000|56=SERVER|10=193|11=12345|38=10|44=9.42|55=HMETAIV|58=Custom FIX message|167=4|268=2|269=0|279=0|299=13169192678404696254|423=9|963=43030|1018=0|1022=HASH|1070=0|1500=5|10=000|
20241202-00:29:50.000000000 : 8=FIXT.1.1|9=64|35=1|34=8|49=CLIENT|52=20241202-00:29:50.000|56=SERVER|112=TEST|10=193|
20241202-00:30:08.000000000 : 8=FIXT.1.1|9=80|35=A|34=1|49=CLIENT|52=20241202-00:30:08.000|56=SERVER|98=0|108=30|141=Y|1137=9|10=058|
20241202-00:30:08.000000000 : 8=FIXT.1.1|9=80|35=A|34=1|49=SERVER|52=20241202-00:30:08.000|56=CLIENT|98=0|108=30|141=Y|1137=9|10=058|
20241202-00:30:14.000000000 : 8=FIXT.1.1|9=207|35=X|34=2|49=CLIENT|52=20241202-00:30:14.000|56=SERVER|10=193|11=12345|38=10|44=9.42|55=HMETAIV|58=Custom FIX message|167=4|268=2|269=0|279=0|299=13169192678404696254|423=9|963=43030|1018=0|1022=HASH|1070=0|1500=5|10=241|
20241202-00:30:29.000000000 : 8=FIXT.1.1|9=207|35=X|34=3|49=CLIENT|52=20241202-00:30:29.000|56=SERVER|10=193|11=12345|38=10|44=9.42|55=HMETAIV|58=Custom FIX message|167=4|268=2|269=0|279=0|299=13169192678404696254|423=9|963=43030|1018=0|1022=HASH|1070=0|1500=5|10=248|
20241202-00:30:38.000000000 : 8=FIXT.1.1|9=55|35=0|34=2|49=SERVER|52=20241202-00:30:38.000|56=CLIENT|10=166|
20241202-00:30:44.000000000 : 8=FIXT.1.1|9=207|35=X|34=4|49=CLIENT|52=20241202-00:30:44.000|56=SERVER|10=193|11=12345|38=10|44=9.42|55=HMETAIV|58=Custom FIX message|167=4|268=2|269=0|279=0|299=13169192678404696254|423=9|963=43030|1018=0|1022=HASH|1070=0|1500=5|10=246|
20241202-00:30:44.000000000 : 8=FIXT.1.1|9=64|35=1|34=3|49=SERVER|52=20241202-00:30:44.000|56=CLIENT|112=TEST|10=183|
20241202-00:30:44.000000000 : 8=FIXT.1.1|9=64|35=0|34=5|49=CLIENT|52=20241202-00:30:44.000|56=SERVER|112=TEST|10=184|
20241202-00:30:44.000000000 : 8=FIXT.1.1|9=64|35=2|34=4|49=SERVER|52=20241202-00:30:44.000|56=CLIENT|7=2|16=0|10=035|
20241202-00:30:59.000000000 : 8=FIXT.1.1|9=207|35=X|34=6|49=CLIENT|52=20241202-00:30:59.000|56=SERVER|10=193|11=12345|38=10|44=9.42|55=HMETAIV|58=Custom FIX message|167=4|268=2|269=0|279=0|299=13169192678404696254|423=9|963=43030|1018=0|1022=HASH|1070=0|1500=5|10=254|
20241202-00:31:14.000000000 : 8=FIXT.1.1|9=207|35=X|34=7|49=CLIENT|52=20241202-00:31:14.000|56=SERVER|10=193|11=12345|38=10|44=9.42|55=HMETAIV|58=Custom FIX message|167=4|268=2|269=0|279=0|299=13169192678404696254|423=9|963=43030|1018=0|1022=HASH|1070=0|1500=5|10=247|
20241202-00:31:20.000000000 : 8=FIXT.1.1|9=64|35=1|34=8|49=CLIENT|52=20241202-00:31:20.000|56=SERVER|112=TEST|10=183|
20241202-00:31:38.000000000 : 8=FIXT.1.1|9=80|35=A|34=1|49=CLIENT|52=20241202-00:31:38.000|56=SERVER|98=0|108=30|141=Y|1137=9|10=062|
20241202-00:31:38.000000000 : 8=FIXT.1.1|9=80|35=A|34=1|49=SERVER|52=20241202-00:31:38.000|56=CLIENT|98=0|108=30|141=Y|1137=9|10=062|
20241202-00:31:44.000000000 : 8=FIXT.1.1|9=207|35=X|34=2|49=CLIENT|52=20241202-00:31:44.000|56=SERVER|10=193|11=12345|38=10|44=9.42|55=HMETAIV|58=Custom FIX message|167=4|268=2|269=0|279=0|299=13169192678404696254|423=9|963=43030|1018=0|1022=HASH|1070=0|1500=5|10=245|
20241202-00:31:59.000000000 : 8=FIXT.1.1|9=207|35=X|34=3|49=CLIENT|52=20241202-00:31:59.000|56=SERVER|10=193|11=12345|38=10|44=9.42|55=HMETAIV|58=Custom FIX message|167=4|268=2|269=0|279=0|299=13169192678404696254|423=9|963=43030|1018=0|1022=HASH|1070=0|1500=5|10=252|
20241202-00:32:08.000000000 : 8=FIXT.1.1|9=55|35=0|34=2|49=SERVER|52=20241202-00:32:08.000|56=CLIENT|10=165|
20241202-00:32:14.000000000 : 8=FIXT.1.1|9=207|35=X|34=4|49=CLIENT|52=20241202-00:32:14.000|56=SERVER|10=193|11=12345|38=10|44=9.42|55=HMETAIV|58=Custom FIX message|167=4|268=2|269=0|279=0|299=13169192678404696254|423=9|963=43030|1018=0|1022=HASH|1070=0|1500=5|10=245|
20241202-00:32:14.000000000 : 8=FIXT.1.1|9=64|35=1|34=3|49=SERVER|52=20241202-00:32:14.000|56=CLIENT|112=TEST|10=182|
20241202-00:32:14.000000000 : 8=FIXT.1.1|9=64|35=0|34=5|49=CLIENT|52=20241202-00:32:14.000|56=SERVER|112=TEST|10=183|
20241202-00:32:14.000000000 : 8=FIXT.1.1|9=64|35=2|34=4|49=SERVER|52=20241202-00:32:14.000|56=CLIENT|7=2|16=0|10=034|
20241202-00:32:29.000000000 : 8=FIXT.1.1|9=207|35=X|34=6|49=CLIENT|52=20241202-00:32:29.000|56=SERVER|10=193|11=12345|38=10|44=9.42|55=HMETAIV|58=Custom FIX message|167=4|268=2|269=0|279=0|299=13169192678404696254|423=9|963=43030|1018=0|1022=HASH|1070=0|1500=5|10=253|
20241202-00:32:44.000000000 : 8=FIXT.1.1|9=207|35=X|34=7|49=CLIENT|52=20241202-00:32:44.000|56=SERVER|10=193|11=12345|38=10|44=9.42|55=HMETAIV|58=Custom FIX message|167=4|268=2|269=0|279=0|299=13169192678404696254|423=9|963=43030|1018=0|1022=HASH|1070=0|1500=5|10=251|
20241202-00:32:50.000000000 : 8=FIXT.1.1|9=64|35=1|34=8|49=CLIENT|52=20241202-00:32:50.000|56=SERVER|112=TEST|10=187|
20241202-00:33:08.000000000 : 8=FIXT.1.1|9=80|35=A|34=1|49=CLIENT|52=20241202-00:33:08.000|56=SERVER|98=0|108=30|141=Y|1137=9|10=061|
20241202-00:33:08.000000000 : 8=FIXT.1.1|9=80|35=A|34=1|49=SERVER|52=20241202-00:33:08.000|56=CLIENT|98=0|108=30|141=Y|1137=9|10=061|
20241202-00:33:14.000000000 : 8=FIXT.1.1|9=207|35=X|34=2|49=CLIENT|52=20241202-00:33:14.000|56=SERVER|10=193|11=12345|38=10|44=9.42|55=HMETAIV|58=Custom FIX message|167=4|268=2|269=0|279=0|299=13169192678404696254|423=9|963=43030|1018=0|1022=HASH|1070=0|1500=5|10=244|
20241202-00:33:29.000000000 : 8=FIXT.1.1|9=207|35=X|34=3|49=CLIENT|52=20241202-00:33:29.000|56=SERVER|10=193|11=12345|38=10|44=9.42|55=HMETAIV|58=Custom FIX message|167=4|268=2|269=0|279=0|299=13169192678404696254|423=9|963=43030|1018=0|1022=HASH|1070=0|1500=5|10=251|
20241202-00:34:43.000000000 : 8=FIXT.1.1|9=80|35=A|34=1|49=CLIENT|52=20241202-00:34:43.000|56=SERVER|98=0|108=30|141=Y|1137=9|10=061|
20241202-00:34:43.000000000 : 8=FIXT.1.1|9=80|35=A|34=1|49=SERVER|52=20241202-00:34:43.000|56=CLIENT|98=0|108=30|141=Y|1137=9|10=061|
20241202-00:34:48.000000000 : 8=FIXT.1.1|9=207|35=X|34=2|49=CLIENT|52=20241202-00:34:48.000|56=SERVER|10=193|11=12345|38=10|44=9.42|55=HMETAIV|58=Custom FIX message|167=4|268=2|269=0|279=0|299=13169192678404696254|423=9|963=43030|1018=0|1022=HASH|1070=0|1500=5|10=252|
20241202-00:35:03.000000000 : 8=FIXT.1.1|9=207|35=X|34=3|49=CLIENT|52=20241202-00:35:03.000|56=SERVER|10=193|11=12345|38=10|44=9.42|55=HMETAIV|58=Custom FIX message|167=4|268=2|269=0|279=0|299=13169192678404696254|423=9|963=43030|1018=0|1022=HASH|1070=0|1500=5|10=245|
20241202-00:35:13.000000000 : 8=FIXT.1.1|9=55|35=0|34=2|49=SERVER|52=20241202-00:35:13.000|56=CLIENT|10=164|
20241202-00:35:18.000000000 : 8=FIXT.1.1|9=207|35=X|34=4|49=CLIENT|52=20241202-00:35:18.000|56=SERVER|10=193|11=12345|38=10|44=9.42|55=HMETAIV|58=Custom FIX message|167=4|268=2|269=0|279=0|299=13169192678404696254|423=9|963=43030|1018=0|1022=HASH|1070=0|1500=5|10=252|
20241202-00:35:19.000000000 : 8=FIXT.1.1|9=64|35=1|34=3|49=SERVER|52=20241202-00:35:19.000|56=CLIENT|112=TEST|10=190|
20241202-00:35:19.000000000 : 8=FIXT.1.1|9=64|35=0|34=5|49=CLIENT|52=20241202-00:35:19.000|56=SERVER|112=TEST|10=191|
20241202-00:35:19.000000000 : 8=FIXT.1.1|9=64|35=2|34=4|49=SERVER|52=20241202-00:35:19.000|56=CLIENT|7=2|16=0|10=042|
20241202-00:35:33.000000000 : 8=FIXT.1.1|9=207|35=X|34=6|49=CLIENT|52=20241202-00:35:33.000|56=SERVER|10=193|11=12345|38=10|44=9.42|55=HMETAIV|58=Custom FIX message|167=4|268=2|269=0|279=0|299=13169192678404696254|423=9|963=43030|1018=0|1022=HASH|1070=0|1500=5|10=251|
20241203-00:43:40.000000000 : 8=FIXT.1.1|9=80|35=A|34=1|49=CLIENT|52=20241203-00:43:40.000|56=SERVER|98=0|108=30|141=Y|1137=9|10=059|
20241203-00:43:40.000000000 : 8=FIXT.1.1|9=80|35=A|34=1|49=SERVER|52=20241203-00:43:40.000|56=CLIENT|98=0|108=30|141=Y|1137=9|10=059|
20241203-00:43:45.000000000 : 8=FIXT.1.1|9=207|35=X|34=2|49=CLIENT|52=20241203-00:43:45.000|56=SERVER|10=193|11=12345|38=10|44=9.42|55=HMETAIV|58=Custom FIX message|167=4|268=2|269=0|279=0|299=13169192678404696254|423=9|963=43030|1018=0|1022=HASH|1070=0|1500=5|10=250|
20241203-00:51:53.000000000 : 8=FIXT.1.1|9=80|35=A|34=1|49=CLIENT|52=20241203-00:51:53.701|56=SERVER|98=0|108=30|141=Y|1137=9|10=070|
20241203-00:51:53.000000000 : 8=FIXT.1.1|9=80|35=A|34=1|49=SERVER|52=20241203-00:51:53.000|56=CLIENT|98=0|108=30|141=Y|1137=9|10=062|
20241203-00:52:18.000000000 : 8=FIXT.1.1|9=74|35=A|34=2|49=CLIENT|52=20241203-00:52:18.222|56=SERVER|98=0|108=30|1137=9|10=029|
20241203-00:52:18.000000000 : 8=FIXT.1.1|9=74|35=A|34=1|49=SERVER|52=20241203-00:52:18.000|56=CLIENT|98=0|108=30|1137=9|10=022|
20241203-00:52:18.000000000 : 8=FIXT.1.1|9=64|35=2|34=2|49=SERVER|52=20241203-00:52:18.000|56=CLIENT|7=1|16=0|10=038|
20241203-00:52:18.000000000 : 8=FIXT.1.1|9=104|35=5|34=3|49=CLIENT|52=20241203-00:52:18.250|56=SERVER|58=MsgSeqNum too low, expecting 2 but received 1|10=120|
20241203-00:52:18.000000000 : 8=FIXT.1.1|9=55|35=5|34=3|49=SERVER|52=20241203-00:52:18.000|56=CLIENT|10=175|
20241203-00:52:48.000000000 : 8=FIXT.1.1|9=80|35=A|34=1|49=CLIENT|52=20241203-00:52:48.379|56=SERVER|98=0|108=30|141=Y|1137=9|10=086|
20241203-00:52:48.000000000 : 8=FIXT.1.1|9=80|35=A|34=1|49=SERVER|52=20241203-00:52:48.000|56=CLIENT|98=0|108=30|141=Y|1137=9|10=067|
20241203-00:53:18.000000000 : 8=FIXT.1.1|9=55|35=0|34=2|49=SERVER|52=20241203-00:53:18.000|56=CLIENT|10=170|
20241203-00:53:18.000000000 : 8=FIXT.1.1|9=55|35=0|34=2|49=CLIENT|52=20241203-00:53:18.464|56=SERVER|10=184|
20241203-00:53:48.000000000 : 8=FIXT.1.1|9=55|35=0|34=3|49=SERVER|52=20241203-00:53:48.000|56=CLIENT|10=174|
20241203-00:53:48.000000000 : 8=FIXT.1.1|9=55|35=0|34=3|49=CLIENT|52=20241203-00:53:48.609|56=SERVER|10=189|
20241203-00:54:18.000000000 : 8=FIXT.1.1|9=55|35=0|34=4|49=SERVER|52=20241203-00:54:18.000|56=CLIENT|10=173|
20241203-00:54:18.000000000 : 8=FIXT.1.1|9=55|35=0|34=4|49=CLIENT|52=20241203-00:54:18.821|56=SERVER|10=184|
20241203-00:54:48.000000000 : 8=FIXT.1.1|9=55|35=0|34=5|49=SERVER|52=20241203-00:54:48.000|56=CLIENT|10=177|
20241203-00:54:49.000000000 : 8=FIXT.1.1|9=55|35=0|34=5|49=CLIENT|52=20241203-00:54:49.007|56=SERVER|10=185|
20241203-00:55:18.000000000 : 8=FIXT.1.1|9=55|35=0|34=6|49=SERVER|52=20241203-00:55:18.000|56=CLIENT|10=176|
20241203-00:55:19.000000000 : 8=FIXT.1.1|9=55|35=0|34=6|49=CLIENT|52=20241203-00:55:19.203|56=SERVER|10=182|
20241203-00:55:48.000000000 : 8=FIXT.1.1|9=55|35=0|34=7|49=SERVER|52=20241203-00:55:48.000|56=CLIENT|10=180|
20241203-00:55:49.000000000 : 8=FIXT.1.1|9=55|35=0|34=7|49=CLIENT|52=20241203-00:55:49.393|56=SERVER|10=196|
20241203-00:56:18.000000000 : 8=FIXT.1.1|9=55|35=0|34=8|49=SERVER|52=20241203-00:56:18.000|56=CLIENT|10=179|
20241203-00:56:19.000000000 : 8=FIXT.1.1|9=55|35=0|34=8|49=CLIENT|52=20241203-00:56:19.599|56=SERVER|10=203|
20241203-00:56:47.000000000 : 8=FIXT.1.1|9=74|35=A|34=9|49=CLIENT|52=20241203-00:56:47.739|56=SERVER|98=0|108=30|1137=9|10=055|
20241203-00:56:47.000000000 : 8=FIXT.1.1|9=74|35=A|34=1|49=SERVER|52=20241203-00:56:47.000|56=CLIENT|98=0|108=30|1137=9|10=028|
20241203-00:56:47.000000000 : 8=FIXT.1.1|9=64|35=2|34=2|49=SERVER|52=20241203-00:56:47.000|56=CLIENT|7=1|16=0|10=044|
20241203-00:56:47.000000000 : 8=FIXT.1.1|9=105|35=5|34=10|49=CLIENT|52=20241203-00:56:47.770|56=SERVER|58=MsgSeqNum too low, expecting 9 but received 1|10=187|
20241203-00:56:47.000000000 : 8=FIXT.1.1|9=55|35=5|34=3|49=SERVER|52=20241203-00:56:47.000|56=CLIENT|10=181|
20241203-00:57:17.000000000 : 8=FIXT.1.1|9=80|35=A|34=1|49=CLIENT|52=20241203-00:57:17.906|56=SERVER|98=0|108=30|141=Y|1137=9|10=083|
20241203-00:57:17.000000000 : 8=FIXT.1.1|9=80|35=A|34=1|49=SERVER|52=20241203-00:57:17.000|56=CLIENT|98=0|108=30|141=Y|1137=9|10=068|
20241203-00:57:47.000000000 : 8=FIXT.1.1|9=55|35=0|34=2|49=SERVER|52=20241203-00:57:47.000|56=CLIENT|10=176|
20241203-00:57:48.000000000 : 8=FIXT.1.1|9=55|35=0|34=2|49=CLIENT|52=20241203-00:57:48.187|56=SERVER|10=193|
20241203-00:58:17.000000000 : 8=FIXT.1.1|9=55|35=0|34=3|49=SERVER|52=20241203-00:58:17.000|56=CLIENT|10=175|
20241203-00:58:18.000000000 : 8=FIXT.1.1|9=55|35=0|34=3|49=CLIENT|52=20241203-00:58:18.362|56=SERVER|10=187|
20241203-00:58:47.000000000 : 8=FIXT.1.1|9=55|35=0|34=4|49=SERVER|52=20241203-00:58:47.000|56=CLIENT|10=179|
20241203-00:58:48.000000000 : 8=FIXT.1.1|9=55|35=0|34=4|49=CLIENT|52=20241203-00:58:48.502|56=SERVER|10=187|
20241203-00:59:17.000000000 : 8=FIXT.1.1|9=55|35=0|34=5|49=SERVER|52=20241203-00:59:17.000|56=CLIENT|10=178|
20241203-00:59:18.000000000 : 8=FIXT.1.1|9=55|35=0|34=5|49=CLIENT|52=20241203-00:59:18.716|56=SERVER|10=193|
20241203-00:59:47.000000000 : 8=FIXT.1.1|9=55|35=0|34=6|49=SERVER|52=20241203-00:59:47.000|56=CLIENT|10=182|
20241203-00:59:48.000000000 : 8=FIXT.1.1|9=55|35=0|34=6|49=CLIENT|52=20241203-00:59:48.865|56=SERVER|10=202|
20241203-01:00:18.000000000 : 8=FIXT.1.1|9=55|35=0|34=7|49=SERVER|52=20241203-01:00:18.000|56=CLIENT|10=168|
20241203-01:00:19.000000000 : 8=FIXT.1.1|9=55|35=0|34=7|49=CLIENT|52=20241203-01:00:19.011|56=SERVER|10=171|
20241203-01:00:48.000000000 : 8=FIXT.1.1|9=55|35=0|34=8|49=SERVER|52=20241203-01:00:48.000|56=CLIENT|10=172|
20241203-01:00:49.000000000 : 8=FIXT.1.1|9=55|35=0|34=8|49=CLIENT|52=20241203-01:00:49.206|56=SERVER|10=181|
20241203-01:01:18.000000000 : 8=FIXT.1.1|9=55|35=0|34=9|49=SERVER|52=20241203-01:01:18.000|56=CLIENT|10=171|
20241203-01:01:19.000000000 : 8=FIXT.1.1|9=55|35=0|34=9|49=CLIENT|52=20241203-01:01:19.357|56=SERVER|10=187|
20241203-01:01:48.000000000 : 8=FIXT.1.1|9=56|35=0|34=10|49=SERVER|52=20241203-01:01:48.000|56=CLIENT|10=215|
20241203-01:01:49.000000000 : 8=FIXT.1.1|9=56|35=0|34=10|49=CLIENT|52=20241203-01:01:49.609|56=SERVER|10=231|
20241203-01:02:18.000000000 : 8=FIXT.1.1|9=56|35=0|34=11|49=SERVER|52=20241203-01:02:18.000|56=CLIENT|10=214|
20241203-01:02:19.000000000 : 8=FIXT.1.1|9=56|35=0|34=11|49=CLIENT|52=20241203-01:02:19.799|56=SERVER|10=240|
20241203-01:02:48.000000000 : 8=FIXT.1.1|9=56|35=0|34=12|49=SERVER|52=20241203-01:02:48.000|56=CLIENT|10=218|
20241203-01:02:49.000000000 : 8=FIXT.1.1|9=56|35=0|34=12|49=CLIENT|52=20241203-01:02:49.972|56=SERVER|10=237|
20241203-01:03:18.000000000 : 8=FIXT.1.1|9=56|35=0|34=13|49=SERVER|52=20241203-01:03:18.000|56=CLIENT|10=217|
20241203-01:03:20.000000000 : 8=FIXT.1.1|9=56|35=0|34=13|49=CLIENT|52=20241203-01:03:20.125|56=SERVER|10=218|
20241203-01:03:48.000000000 : 8=FIXT.1.1|9=56|35=0|34=14|49=SERVER|52=20241203-01:03:48.000|56=CLIENT|10=221|
20241203-01:03:50.000000000 : 8=FIXT.1.1|9=56|35=0|34=14|49=CLIENT|52=20241203-01:03:50.282|56=SERVER|10=226|
20241203-01:04:18.000000000 : 8=FIXT.1.1|9=56|35=0|34=15|49=SERVER|52=20241203-01:04:18.000|56=CLIENT|10=220|
20241203-01:04:20.000000000 : 8=FIXT.1.1|9=56|35=0|34=15|49=CLIENT|52=20241203-01:04:20.435|56=SERVER|10=225|
20241203-01:04:48.000000000 : 8=FIXT.1.1|9=56|35=0|34=16|49=SERVER|52=20241203-01:04:48.000|56=CLIENT|10=224|
20241203-01:04:50.000000000 : 8=FIXT.1.1|9=56|35=0|34=16|49=CLIENT|52=20241203-01:04:50.619|56=SERVER|10=233|
20241203-01:05:18.000000000 : 8=FIXT.1.1|9=56|35=0|34=17|49=SERVER|52=20241203-01:05:18.000|56=CLIENT|10=223|
20241203-01:05:20.000000000 : 8=FIXT.1.1|9=56|35=0|34=17|49=CLIENT|52=20241203-01:05:20.799|56=SERVER|10=241|
20241203-01:05:48.000000000 : 8=FIXT.1.1|9=56|35=0|34=18|49=SERVER|52=20241203-01:05:48.000|56=CLIENT|10=227|
20241203-01:05:50.000000000 : 8=FIXT.1.1|9=56|35=0|34=18|49=CLIENT|52=20241203-01:05:50.967|56=SERVER|10=242|
20241203-01:06:18.000000000 : 8=FIXT.1.1|9=56|35=0|34=19|49=SERVER|52=20241203-01:06:18.000|56=CLIENT|10=226|
20241203-01:06:21.000000000 : 8=FIXT.1.1|9=56|35=0|34=19|49=CLIENT|52=20241203-01:06:21.150|56=SERVER|10=226|
20241203-01:06:48.000000000 : 8=FIXT.1.1|9=56|35=0|34=20|49=SERVER|52=20241203-01:06:48.000|56=CLIENT|10=221|
20241203-01:06:51.000000000 : 8=FIXT.1.1|9=56|35=0|34=20|49=CLIENT|52=20241203-01:06:51.312|56=SERVER|10=221|
20241203-01:07:18.000000000 : 8=FIXT.1.1|9=56|35=0|34=21|49=SERVER|52=20241203-01:07:18.000|56=CLIENT|10=220|
20241203-01:07:21.000000000 : 8=FIXT.1.1|9=56|35=0|34=21|49=CLIENT|52=20241203-01:07:21.594|56=SERVER|10=232|
20241203-01:07:48.000000000 : 8=FIXT.1.1|9=56|35=0|34=22|49=SERVER|52=20241203-01:07:48.000|56=CLIENT|10=224|
20241203-01:07:51.000000000 : 8=FIXT.1.1|9=56|35=0|34=22|49=CLIENT|52=20241203-01:07:51.835|56=SERVER|10=234|
20241203-01:08:18.000000000 : 8=FIXT.1.1|9=56|35=0|34=23|49=SERVER|52=20241203-01:08:18.000|56=CLIENT|10=223|
20241203-01:08:21.000000000 : 8=FIXT.1.1|9=56|35=0|34=23|49=CLIENT|52=20241203-01:08:21.980|56=SERVER|10=234|
20241203-01:08:48.000000000 : 8=FIXT.1.1|9=56|35=0|34=24|49=SERVER|52=20241203-01:08:48.000|56=CLIENT|10=227|
20241203-01:08:52.000000000 : 8=FIXT.1.1|9=56|35=0|34=24|49=CLIENT|52=20241203-01:08:52.180|56=SERVER|10=231|
20241203-01:09:18.000000000 : 8=FIXT.1.1|9=56|35=0|34=25|49=SERVER|52=20241203-01:09:18.000|56=CLIENT|10=226|
20241203-01:09:22.000000000 : 8=FIXT.1.1|9=56|35=0|34=25|49=CLIENT|52=20241203-01:09:22.382|56=SERVER|10=234|
20241203-01:09:48.000000000 : 8=FIXT.1.1|9=56|35=0|34=26|49=SERVER|52=20241203-01:09:48.000|56=CLIENT|10=230|
20241203-01:09:52.000000000 : 8=FIXT.1.1|9=56|35=0|34=26|49=CLIENT|52=20241203-01:09:52.555|56=SERVER|10=240|
20241203-01:10:18.000000000 : 8=FIXT.1.1|9=56|35=0|34=27|49=SERVER|52=20241203-01:10:18.000|56=CLIENT|10=220|
20241203-01:10:22.000000000 : 8=FIXT.1.1|9=56|35=0|34=27|49=CLIENT|52=20241203-01:10:22.749|56=SERVER|10=235|
20241203-01:10:48.000000000 : 8=FIXT.1.1|9=56|35=0|34=28|49=SERVER|52=20241203-01:10:48.000|56=CLIENT|10=224|
20241203-01:10:52.000000000 : 8=FIXT.1.1|9=56|35=0|34=28|49=CLIENT|52=20241203-01:10:52.913|56=SERVER|10=232|
20241203-01:11:18.000000000 : 8=FIXT.1.1|9=56|35=0|34=29|49=SERVER|52=20241203-01:11:18.000|56=CLIENT|10=223|
20241203-01:11:23.000000000 : 8=FIXT.1.1|9=56|35=0|34=29|49=CLIENT|52=20241203-01:11:23.053|56=SERVER|10=227|
20241203-01:11:48.000000000 : 8=FIXT.1.1|9=56|35=0|34=30|49=SERVER|52=20241203-01:11:48.000|56=CLIENT|10=218|
20241203-01:11:53.000000000 : 8=FIXT.1.1|9=56|35=0|34=30|49=CLIENT|52=20241203-01:11:53.196|56=SERVER|10=230|
20241203-01:12:18.000000000 : 8=FIXT.1.1|9=56|35=0|34=31|49=SERVER|52=20241203-01:12:18.000|56=CLIENT|10=217|
20241203-01:12:23.000000000 : 8=FIXT.1.1|9=56|35=0|34=31|49=CLIENT|52=20241203-01:12:23.372|56=SERVER|10=225|
20241203-01:12:48.000000000 : 8=FIXT.1.1|9=56|35=0|34=32|49=SERVER|52=20241203-01:12:48.000|56=CLIENT|10=221|
20241203-01:12:53.000000000 : 8=FIXT.1.1|9=56|35=0|34=32|49=CLIENT|52=20241203-01:12:53.533|56=SERVER|10=228|
20241203-01:13:18.000000000 : 8=FIXT.1.1|9=56|35=0|34=33|49=SERVER|52=20241203-01:13:18.000|56=CLIENT|10=220|
20241203-01:13:23.000000000 : 8=FIXT.1.1|9=56|35=0|34=33|49=CLIENT|52=20241203-01:13:23.699|56=SERVER|10=240|
20241203-01:13:48.000000000 : 8=FIXT.1.1|9=56|35=0|34=34|49=SERVER|52=20241203-01:13:48.000|56=CLIENT|10=224|
20241203-01:13:53.000000000 : 8=FIXT.1.1|9=56|35=0|34=34|49=CLIENT|52=20241203-01:13:53.853|56=SERVER|10=236|
20241203-01:14:18.000000000 : 8=FIXT.1.1|9=56|35=0|34=35|49=SERVER|52=20241203-01:14:18.000|56=CLIENT|10=223|
20241203-01:14:24.000000000 : 8=FIXT.1.1|9=56|35=0|34=35|49=CLIENT|52=20241203-01:14:24.038|56=SERVER|10=231|
20241203-01:14:48.000000000 : 8=FIXT.1.1|9=56|35=0|34=36|49=SERVER|52=20241203-01:14:48.000|56=CLIENT|10=227|
20241203-01:14:54.000000000 : 8=FIXT.1.1|9=56|35=0|34=36|49=CLIENT|52=20241203-01:14:54.199|56=SERVER|10=243|
20241203-01:15:18.000000000 : 8=FIXT.1.1|9=56|35=0|34=37|49=SERVER|52=20241203-01:15:18.000|56=CLIENT|10=226|
20241203-01:15:24.000000000 : 8=FIXT.1.1|9=56|35=0|34=37|49=CLIENT|52=20241203-01:15:24.370|56=SERVER|10=233|
20241203-01:15:48.000000000 : 8=FIXT.1.1|9=56|35=0|34=38|49=SERVER|52=20241203-01:15:48.000|56=CLIENT|10=230|
20241203-01:15:54.000000000 : 8=FIXT.1.1|9=56|35=0|34=38|49=CLIENT|52=20241203-01:15:54.543|56=SERVER|10=239|
20241203-01:16:18.000000000 : 8=FIXT.1.1|9=56|35=0|34=39|49=SERVER|52=20241203-01:16:18.000|56=CLIENT|10=229|
20241203-01:16:24.000000000 : 8=FIXT.1.1|9=56|35=0|34=39|49=CLIENT|52=20241203-01:16:24.720|56=SERVER|10=235|
20241203-01:16:48.000000000 : 8=FIXT.1.1|9=56|35=0|34=40|49=SERVER|52=20241203-01:16:48.000|56=CLIENT|10=224|
20241203-01:16:54.000000000 : 8=FIXT.1.1|9=56|35=0|34=40|49=CLIENT|52=20241203-01:16:54.888|56=SERVER|10=245|
20241203-01:17:19.000000000 : 8=FIXT.1.1|9=56|35=0|34=41|49=SERVER|52=20241203-01:17:19.000|56=CLIENT|10=224|
20241203-01:17:25.000000000 : 8=FIXT.1.1|9=56|35=0|34=41|49=CLIENT|52=20241203-01:17:25.037|56=SERVER|10=231|
20241203-01:17:49.000000000 : 8=FIXT.1.1|9=56|35=0|34=42|49=SERVER|52=20241203-01:17:49.000|56=CLIENT|10=228|
20241203-01:17:55.000000000 : 8=FIXT.1.1|9=56|35=0|34=42|49=CLIENT|52=20241203-01:17:55.199|56=SERVER|10=244|
20241203-01:18:19.000000000 : 8=FIXT.1.1|9=56|35=0|34=43|49=SERVER|52=20241203-01:18:19.000|56=CLIENT|10=227|
20241203-01:18:25.000000000 : 8=FIXT.1.1|9=56|35=0|34=43|49=CLIENT|52=20241203-01:18:25.430|56=SERVER|10=231|
20241203-01:18:49.000000000 : 8=FIXT.1.1|9=56|35=0|34=44|49=SERVER|52=20241203-01:18:49.000|56=CLIENT|10=231|
20241203-01:18:55.000000000 : 8=FIXT.1.1|9=56|35=0|34=44|49=CLIENT|52=20241203-01:18:55.631|56=SERVER|10=238|
20241203-01:19:19.000000000 : 8=FIXT.1.1|9=56|35=0|34=45|49=SERVER|52=20241203-01:19:19.000|56=CLIENT|10=230|
20241203-01:19:25.000000000 : 8=FIXT.1.1|9=56|35=0|34=45|49=CLIENT|52=20241203-01:19:25.768|56=SERVER|10=248|
20241203-01:19:49.000000000 : 8=FIXT.1.1|9=56|35=0|34=46|49=SERVER|52=20241203-01:19:49.000|56=CLIENT|10=234|
20241203-01:19:55.000000000 : 8=FIXT.1.1|9=56|35=0|34=46|49=CLIENT|52=20241203-01:19:55.960|56=SERVER|10=246|
20241203-01:20:19.000000000 : 8=FIXT.1.1|9=56|35=0|34=47|49=SERVER|52=20241203-01:20:19.000|56=CLIENT|10=224|
20241203-01:20:26.000000000 : 8=FIXT.1.1|9=56|35=0|34=47|49=CLIENT|52=20241203-01:20:26.163|56=SERVER|10=232|
20241203-01:20:49.000000000 : 8=FIXT.1.1|9=56|35=0|34=48|49=SERVER|52=20241203-01:20:49.000|56=CLIENT|10=228|
20241203-01:20:56.000000000 : 8=FIXT.1.1|9=56|35=0|34=48|49=CLIENT|52=20241203-01:20:56.299|56=SERVER|10=246|
20241203-01:21:19.000000000 : 8=FIXT.1.1|9=56|35=0|34=49|49=SERVER|52=20241203-01:21:19.000|56=CLIENT|10=227|
20241203-01:21:26.000000000 : 8=FIXT.1.1|9=56|35=0|34=49|49=CLIENT|52=20241203-01:21:26.447|56=SERVER|10=240|
20241203-01:21:49.000000000 : 8=FIXT.1.1|9=56|35=0|34=50|49=SERVER|52=20241203-01:21:49.000|56=CLIENT|10=222|
20241203-01:21:56.000000000 : 8=FIXT.1.1|9=56|35=0|34=50|49=CLIENT|52=20241203-01:21:56.624|56=SERVER|10=232|
20241203-01:22:19.000000000 : 8=FIXT.1.1|9=56|35=0|34=51|49=SERVER|52=20241203-01:22:19.000|56=CLIENT|10=221|
20241203-01:22:26.000000000 : 8=FIXT.1.1|9=56|35=0|34=51|49=CLIENT|52=20241203-01:22:26.742|56=SERVER|10=232|
20241203-01:22:49.000000000 : 8=FIXT.1.1|9=56|35=0|34=52|49=SERVER|52=20241203-01:22:49.000|56=CLIENT|10=225|
20241203-01:22:56.000000000 : 8=FIXT.1.1|9=56|35=0|34=52|49=CLIENT|52=20241203-01:22:56.871|56=SERVER|10=239|
20241203-01:23:19.000000000 : 8=FIXT.1.1|9=56|35=0|34=53|49=SERVER|52=20241203-01:23:19.000|56=CLIENT|10=224|
20241203-01:23:27.000000000 : 8=FIXT.1.1|9=56|35=0|34=53|49=CLIENT|52=20241203-01:23:27.052|56=SERVER|10=230|
20241203-01:23:49.000000000 : 8=FIXT.1.1|9=56|35=0|34=54|49=SERVER|52=20241203-01:23:49.000|56=CLIENT|10=228|
20241203-01:23:57.000000000 : 8=FIXT.1.1|9=56|35=0|34=54|49=CLIENT|52=20241203-01:23:57.193|56=SERVER|10=240|
20241203-01:24:19.000000000 : 8=FIXT.1.1|9=56|35=0|34=55|49=SERVER|52=20241203-01:24:19.000|56=CLIENT|10=227|
20241203-01:24:27.000000000 : 8=FIXT.1.1|9=56|35=0|34=55|49=CLIENT|52=20241203-01:24:27.402|56=SERVER|10=232|
20241203-01:24:49.000000000 : 8=FIXT.1.1|9=56|35=0|34=56|49=SERVER|52=20241203-01:24:49.000|56=CLIENT|10=231|
20241203-01:24:57.000000000 : 8=FIXT.1.1|9=56|35=0|34=56|49=CLIENT|52=20241203-01:24:57.577|56=SERVER|10=249|
20241203-01:25:19.000000000 : 8=FIXT.1.1|9=56|35=0|34=57|49=SERVER|52=20241203-01:25:19.000|56=CLIENT|10=230|
20241203-01:25:27.000000000 : 8=FIXT.1.1|9=56|35=0|34=57|49=CLIENT|52=20241203-01:25:27.836|56=SERVER|10=246|
20241203-01:25:49.000000000 : 8=FIXT.1.1|9=56|35=0|34=58|49=SERVER|52=20241203-01:25:49.000|56=CLIENT|10=234|
20241203-01:25:57.000000000 : 8=FIXT.1.1|9=56|35=0|34=58|49=CLIENT|52=20241203-01:25:57.966|56=SERVER|10=254|
20241203-01:26:19.000000000 : 8=FIXT.1.1|9=56|35=0|34=59|49=SERVER|52=20241203-01:26:19.000|56=CLIENT|10=233|
20241203-01:26:28.000000000 : 8=FIXT.1.1|9=56|35=0|34=59|49=CLIENT|52=20241203-01:26:28.156|56=SERVER|10=245|
20241203-01:26:49.000000000 : 8=FIXT.1.1|9=56|35=0|34=60|49=SERVER|52=20241203-01:26:49.000|56=CLIENT|10=228|
20241203-01:26:58.000000000 : 8=FIXT.1.1|9=56|35=0|34=60|49=CLIENT|52=20241203-01:26:58.349|56=SERVER|10=244|
20241203-01:27:19.000000000 : 8=FIXT.1.1|9=56|35=0|34=61|49=SERVER|52=20241203-01:27:19.000|56=CLIENT|10=227|
20241203-01:27:28.000000000 : 8=FIXT.1.1|9=56|35=0|34=61|49=CLIENT|52=20241203-01:27:28.537|56=SERVER|10=242|
20241203-01:27:49.000000000 : 8=FIXT.1.1|9=56|35=0|34=62|49=SERVER|52=20241203-01:27:49.000|56=CLIENT|10=231|
20241203-01:27:58.000000000 : 8=FIXT.1.1|9=56|35=0|34=62|49=CLIENT|52=20241203-01:27:58.741|56=SERVER|10=243|
20241203-01:28:19.000000000 : 8=FIXT.1.1|9=56|35=0|34=63|49=SERVER|52=20241203-01:28:19.000|56=CLIENT|10=230|
20241203-01:28:28.000000000 : 8=FIXT.1.1|9=56|35=0|34=63|49=CLIENT|52=20241203-01:28:28.994|56=SERVER|10=252|
20241203-01:28:49.000000000 : 8=FIXT.1.1|9=56|35=0|34=64|49=SERVER|52=20241203-01:28:49.000|56=CLIENT|10=234|
20241203-01:28:59.000000000 : 8=FIXT.1.1|9=56|35=0|34=64|49=CLIENT|52=20241203-01:28:59.270|56=SERVER|10=244|
20241203-01:29:19.000000000 : 8=FIXT.1.1|9=56|35=0|34=65|49=SERVER|52=20241203-01:29:19.000|56=CLIENT|10=233|
20241203-01:29:29.000000000 : 8=FIXT.1.1|9=56|35=0|34=65|49=CLIENT|52=20241203-01:29:29.566|56=SERVER|10=251|
20241203-01:29:49.000000000 : 8=FIXT.1.1|9=56|35=0|34=66|49=SERVER|52=20241203-01:29:49.000|56=CLIENT|10=237|
20241203-01:29:59.000000000 : 8=FIXT.1.1|9=56|35=0|34=66|49=CLIENT|52=20241203-01:29:59.863|56=SERVER|10=255|
20241203-01:30:19.000000000 : 8=FIXT.1.1|9=56|35=0|34=67|49=SERVER|52=20241203-01:30:19.000|56=CLIENT|10=227|
20241203-01:30:30.000000000 : 8=FIXT.1.1|9=56|35=0|34=67|49=CLIENT|52=20241203-01:30:30.155|56=SERVER|10=231|
20241203-01:30:49.000000000 : 8=FIXT.1.1|9=56|35=0|34=68|49=SERVER|52=20241203-01:30:49.000|56=CLIENT|10=231|
20241203-01:31:00.000000000 : 8=FIXT.1.1|9=56|35=0|34=68|49=CLIENT|52=20241203-01:31:00.425|56=SERVER|10=230|
20241203-01:31:19.000000000 : 8=FIXT.1.1|9=56|35=0|34=69|49=SERVER|52=20241203-01:31:19.000|56=CLIENT|10=230|
20241203-01:31:30.000000000 : 8=FIXT.1.1|9=56|35=0|34=69|49=CLIENT|52=20241203-01:31:30.712|56=SERVER|10=233|
20241203-01:31:49.000000000 : 8=FIXT.1.1|9=56|35=0|34=70|49=SERVER|52=20241203-01:31:49.000|56=CLIENT|10=225|
20241203-01:32:01.000000000 : 8=FIXT.1.1|9=56|35=0|34=70|49=CLIENT|52=20241203-01:32:01.020|56=SERVER|10=216|
20241203-01:32:19.000000000 : 8=FIXT.1.1|9=56|35=0|34=71|49=SERVER|52=20241203-01:32:19.000|56=CLIENT|10=224|
20241203-01:32:31.000000000 : 8=FIXT.1.1|9=56|35=0|34=71|49=CLIENT|52=20241203-01:32:31.320|56=SERVER|10=223|
20241203-01:32:49.000000000 : 8=FIXT.1.1|9=56|35=0|34=72|49=SERVER|52=20241203-01:32:49.000|56=CLIENT|10=228|
20241203-01:33:01.000000000 : 8=FIXT.1.1|9=56|35=0|34=72|49=CLIENT|52=20241203-01:33:01.589|56=SERVER|10=239|
20241203-01:33:19.000000000 : 8=FIXT.1.1|9=56|35=0|34=73|49=SERVER|52=20241203-01:33:19.000|56=CLIENT|10=227|
20241203-01:33:31.000000000 : 8=FIXT.1.1|9=56|35=0|34=73|49=CLIENT|52=20241203-01:33:31.812|56=SERVER|10=232|
20241203-01:33:49.000000000 : 8=FIXT.1.1|9=56|35=0|34=74|49=SERVER|52=20241203-01:33:49.000|56=CLIENT|10=231|
20241203-01:34:02.000000000 : 8=FIXT.1.1|9=56|35=0|34=74|49=CLIENT|52=20241203-01:34:02.099|56=SERVER|10=239|
20241203-01:34:19.000000000 : 8=FIXT.1.1|9=56|35=0|34=75|49=SERVER|52=20241203-01:34:19.000|56=CLIENT|10=230|
20241203-01:34:32.000000000 : 8=FIXT.1.1|9=56|35=0|34=75|49=CLIENT|52=20241203-01:34:32.243|56=SERVER|10=234|
20241203-01:34:49.000000000 : 8=FIXT.1.1|9=56|35=0|34=76|49=SERVER|52=20241203-01:34:49.000|56=CLIENT|10=234|
20241203-01:35:02.000000000 : 8=FIXT.1.1|9=56|35=0|34=76|49=CLIENT|52=20241203-01:35:02.399|56=SERVER|10=245|
20241203-01:35:19.000000000 : 8=FIXT.1.1|9=56|35=0|34=77|49=SERVER|52=20241203-01:35:19.000|56=CLIENT|10=233|
20241203-01:35:32.000000000 : 8=FIXT.1.1|9=56|35=0|34=77|49=CLIENT|52=20241203-01:35:32.552|56=SERVER|10=240|
20241203-01:35:49.000000000 : 8=FIXT.1.1|9=56|35=0|34=78|49=SERVER|52=20241203-01:35:49.000|56=CLIENT|10=237|
20241203-01:36:02.000000000 : 8=FIXT.1.1|9=56|35=0|34=78|49=CLIENT|52=20241203-01:36:02.734|56=SERVER|10=241|
20241203-01:36:19.000000000 : 8=FIXT.1.1|9=56|35=0|34=79|49=SERVER|52=20241203-01:36:19.000|56=CLIENT|10=236|
20241203-01:36:32.000000000 : 8=FIXT.1.1|9=56|35=0|34=79|49=CLIENT|52=20241203-01:36:32.900|56=SERVER|10=240|
20241203-01:36:49.000000000 : 8=FIXT.1.1|9=56|35=0|34=80|49=SERVER|52=20241203-01:36:49.000|56=CLIENT|10=231|
20241203-01:37:03.000000000 : 8=FIXT.1.1|9=56|35=0|34=80|49=CLIENT|52=20241203-01:37:03.041|56=SERVER|10=227|
20241203-01:37:19.000000000 : 8=FIXT.1.1|9=56|35=0|34=81|49=SERVER|52=20241203-01:37:19.000|56=CLIENT|10=230|
20241203-01:37:33.000000000 : 8=FIXT.1.1|9=56|35=0|34=81|49=CLIENT|52=20241203-01:37:33.194|56=SERVER|10=240|
20241203-01:37:49.000000000 : 8=FIXT.1.1|9=56|35=0|34=82|49=SERVER|52=20241203-01:37:49.000|56=CLIENT|10=234|
20241203-01:38:03.000000000 : 8=FIXT.1.1|9=56|35=0|34=82|49=CLIENT|52=20241203-01:38:03.348|56=SERVER|10=240|
20241203-01:38:19.000000000 : 8=FIXT.1.1|9=56|35=0|34=83|49=SERVER|52=20241203-01:38:19.000|56=CLIENT|10=233|
20241203-01:38:33.000000000 : 8=FIXT.1.1|9=56|35=0|34=83|49=CLIENT|52=20241203-01:38:33.516|56=SERVER|10=241|
20241203-01:38:49.000000000 : 8=FIXT.1.1|9=56|35=0|34=84|49=SERVER|52=20241203-01:38:49.000|56=CLIENT|10=237|
20241203-01:39:03.000000000 : 8=FIXT.1.1|9=56|35=0|34=84|49=CLIENT|52=20241203-01:39:03.670|56=SERVER|10=241|
20241203-01:39:19.000000000 : 8=FIXT.1.1|9=56|35=0|34=85|49=SERVER|52=20241203-01:39:19.000|56=CLIENT|10=236|
20241203-01:39:33.000000000 : 8=FIXT.1.1|9=56|35=0|34=85|49=CLIENT|52=20241203-01:39:33.864|56=SERVER|10=250|
20241203-01:39:49.000000000 : 8=FIXT.1.1|9=56|35=0|34=86|49=SERVER|52=20241203-01:39:49.000|56=CLIENT|10=240|
20241203-01:40:04.000000000 : 8=FIXT.1.1|9=56|35=0|34=86|49=CLIENT|52=20241203-01:40:04.060|56=SERVER|10=229|
20241203-01:40:19.000000000 : 8=FIXT.1.1|9=56|35=0|34=87|49=SERVER|52=20241203-01:40:19.000|56=CLIENT|10=230|
20241203-01:40:34.000000000 : 8=FIXT.1.1|9=56|35=0|34=87|49=CLIENT|52=20241203-01:40:34.254|56=SERVER|10=238|
20241203-14:23:47.000000000 : 8=FIXT.1.1|9=75|35=A|34=88|49=CLIENT|52=20241203-14:23:47.958|56=SERVER|98=0|108=30|1137=9|10=113|
20241203-14:23:47.000000000 : 8=FIXT.1.1|9=74|35=A|34=1|49=SERVER|52=20241203-14:23:47.000|56=CLIENT|98=0|108=30|1137=9|10=027|
20241203-14:23:47.000000000 : 8=FIXT.1.1|9=64|35=2|34=2|49=SERVER|52=20241203-14:23:47.000|56=CLIENT|7=1|16=0|10=043|
20241203-14:23:48.000000000 : 8=FIXT.1.1|9=106|35=5|34=89|49=CLIENT|52=20241203-14:23:48.014|56=SERVER|58=MsgSeqNum too low, expecting 88 but received 1|10=250|
20241203-14:23:48.000000000 : 8=FIXT.1.1|9=55|35=5|34=3|49=SERVER|52=20241203-14:23:48.000|56=CLIENT|10=181|
20241203-14:24:18.000000000 : 8=FIXT.1.1|9=80|35=A|34=1|49=CLIENT|52=20241203-14:24:18.083|56=SERVER|98=0|108=30|141=Y|1137=9|10=079|
20241203-14:24:18.000000000 : 8=FIXT.1.1|9=80|35=A|34=1|49=SERVER|52=20241203-14:24:18.000|56=CLIENT|98=0|108=30|141=Y|1137=9|10=068|
20241203-14:24:48.000000000 : 8=FIXT.1.1|9=55|35=0|34=2|49=SERVER|52=20241203-14:24:48.000|56=CLIENT|10=176|
20241203-14:24:49.000000000 : 8=FIXT.1.1|9=55|35=0|34=2|49=CLIENT|52=20241203-14:24:49.035|56=SERVER|10=185|
20241203-14:25:18.000000000 : 8=FIXT.1.1|9=55|35=0|34=3|49=SERVER|52=20241203-14:25:18.000|56=CLIENT|10=175|
20241203-14:25:19.000000000 : 8=FIXT.1.1|9=55|35=0|34=3|49=CLIENT|52=20241203-14:25:19.248|56=SERVER|10=190|
20241203-14:25:48.000000000 : 8=FIXT.1.1|9=55|35=0|34=4|49=SERVER|52=20241203-14:25:48.000|56=CLIENT|10=179|
20241203-14:25:49.000000000 : 8=FIXT.1.1|9=55|35=0|34=4|49=CLIENT|52=20241203-14:25:49.471|56=SERVER|10=192|
20241203-14:26:18.000000000 : 8=FIXT.1.1|9=55|35=0|34=5|49=SERVER|52=20241203-14:26:18.000|56=CLIENT|10=178|
20241203-14:26:19.000000000 : 8=FIXT.1.1|9=55|35=0|34=5|49=CLIENT|52=20241203-14:26:19.672|56=SERVER|10=194|
20241203-14:26:48.000000000 : 8=FIXT.1.1|9=55|35=0|34=6|49=SERVER|52=20241203-14:26:48.000|56=CLIENT|10=182|
20241203-14:26:49.000000000 : 8=FIXT.1.1|9=55|35=0|34=6|49=CLIENT|52=20241203-14:26:49.851|56=SERVER|10=197|
20241203-14:27:18.000000000 : 8=FIXT.1.1|9=55|35=0|34=7|49=SERVER|52=20241203-14:27:18.000|56=CLIENT|10=181|
20241203-14:27:20.000000000 : 8=FIXT.1.1|9=55|35=0|34=7|49=CLIENT|52=20241203-14:27:20.055|56=SERVER|10=184|
20241203-14:27:48.000000000 : 8=FIXT.1.1|9=55|35=0|34=8|49=SERVER|52=20241203-14:27:48.000|56=CLIENT|10=185|
20241203-14:27:50.000000000 : 8=FIXT.1.1|9=55|35=0|34=8|49=CLIENT|52=20241203-14:27:50.298|56=SERVER|10=197|
20241203-14:28:18.000000000 : 8=FIXT.1.1|9=55|35=0|34=9|49=SERVER|52=20241203-14:28:18.000|56=CLIENT|10=184|
20241203-14:28:20.000000000 : 8=FIXT.1.1|9=55|35=0|34=9|49=CLIENT|52=20241203-14:28:20.496|56=SERVER|10=196|
20241203-14:28:48.000000000 : 8=FIXT.1.1|9=56|35=0|34=10|49=SERVER|52=20241203-14:28:48.000|56=CLIENT|10=228|
20241203-14:28:50.000000000 : 8=FIXT.1.1|9=56|35=0|34=10|49=CLIENT|52=20241203-14:28:50.714|56=SERVER|10=233|
20241203-14:29:18.000000000 : 8=FIXT.1.1|9=56|35=0|34=11|49=SERVER|52=20241203-14:29:18.000|56=CLIENT|10=227|
20241203-14:29:20.000000000 : 8=FIXT.1.1|9=56|35=0|34=11|49=CLIENT|52=20241203-14:29:20.873|56=SERVER|10=238|
20241203-14:29:48.000000000 : 8=FIXT.1.1|9=56|35=0|34=12|49=SERVER|52=20241203-14:29:48.000|56=CLIENT|10=231|
20241203-14:29:51.000000000 : 8=FIXT.1.1|9=56|35=0|34=12|49=CLIENT|52=20241203-14:29:51.056|56=SERVER|10=236|
20241203-14:30:18.000000000 : 8=FIXT.1.1|9=56|35=0|34=13|49=SERVER|52=20241203-14:30:18.000|56=CLIENT|10=221|
20241203-14:30:21.000000000 : 8=FIXT.1.1|9=56|35=0|34=13|49=CLIENT|52=20241203-14:30:21.245|56=SERVER|10=226|
20241203-14:30:48.000000000 : 8=FIXT.1.1|9=56|35=0|34=14|49=SERVER|52=20241203-14:30:48.000|56=CLIENT|10=225|
20241203-14:30:51.000000000 : 8=FIXT.1.1|9=56|35=0|34=14|49=CLIENT|52=20241203-14:30:51.429|56=SERVER|10=234|
20241203-14:31:18.000000000 : 8=FIXT.1.1|9=56|35=0|34=15|49=SERVER|52=20241203-14:31:18.000|56=CLIENT|10=224|
20241203-14:31:21.000000000 : 8=FIXT.1.1|9=56|35=0|34=15|49=CLIENT|52=20241203-14:31:21.553|56=SERVER|10=231|
20241203-14:31:48.000000000 : 8=FIXT.1.1|9=56|35=0|34=16|49=SERVER|52=20241203-14:31:48.000|56=CLIENT|10=228|
20241203-14:31:51.000000000 : 8=FIXT.1.1|9=56|35=0|34=16|49=CLIENT|52=20241203-14:31:51.770|56=SERVER|10=236|
20241203-14:32:18.000000000 : 8=FIXT.1.1|9=56|35=0|34=17|49=SERVER|52=20241203-14:32:18.000|56=CLIENT|10=227|
20241203-14:32:21.000000000 : 8=FIXT.1.1|9=56|35=0|34=17|49=CLIENT|52=20241203-14:32:21.949|56=SERVER|10=243|
20241203-14:32:48.000000000 : 8=FIXT.1.1|9=56|35=0|34=18|49=SERVER|52=20241203-14:32:48.000|56=CLIENT|10=231|
20241203-14:32:52.000000000 : 8=FIXT.1.1|9=56|35=0|34=18|49=CLIENT|52=20241203-14:32:52.136|56=SERVER|10=236|
20241203-14:33:18.000000000 : 8=FIXT.1.1|9=56|35=0|34=19|49=SERVER|52=20241203-14:33:18.000|56=CLIENT|10=230|
20241203-14:33:22.000000000 : 8=FIXT.1.1|9=56|35=0|34=19|49=CLIENT|52=20241203-14:33:22.321|56=SERVER|10=231|
20241203-14:33:48.000000000 : 8=FIXT.1.1|9=56|35=0|34=20|49=SERVER|52=20241203-14:33:48.000|56=CLIENT|10=225|
20241203-14:33:52.000000000 : 8=FIXT.1.1|9=56|35=0|34=20|49=CLIENT|52=20241203-14:33:52.468|56=SERVER|10=238|
20241203-14:34:18.000000000 : 8=FIXT.1.1|9=56|35=0|34=21|49=SERVER|52=20241203-14:34:18.000|56=CLIENT|10=224|
20241203-14:34:22.000000000 : 8=FIXT.1.1|9=56|35=0|34=21|49=CLIENT|52=20241203-14:34:22.634|56=SERVER|10=232|
20241203-14:34:48.000000000 : 8=FIXT.1.1|9=56|35=0|34=22|49=SERVER|52=20241203-14:34:48.000|56=CLIENT|10=228|
20241203-14:34:52.000000000 : 8=FIXT.1.1|9=56|35=0|34=22|49=CLIENT|52=20241203-14:34:52.806|56=SERVER|10=237|
20241203-14:35:18.000000000 : 8=FIXT.1.1|9=56|35=0|34=23|49=SERVER|52=20241203-14:35:18.000|56=CLIENT|10=227|
20241203-14:35:22.000000000 : 8=FIXT.1.1|9=56|35=0|34=23|49=CLIENT|52=20241203-14:35:22.995|56=SERVER|10=245|
20241203-14:35:48.000000000 : 8=FIXT.1.1|9=56|35=0|34=24|49=SERVER|52=20241203-14:35:48.000|56=CLIENT|10=231|
20241203-14:35:53.000000000 : 8=FIXT.1.1|9=56|35=0|34=24|49=CLIENT|52=20241203-14:35:53.163|56=SERVER|10=237|
20241203-14:36:18.000000000 : 8=FIXT.1.1|9=56|35=0|34=25|49=SERVER|52=20241203-14:36:18.000|56=CLIENT|10=230|
20241203-14:36:23.000000000 : 8=FIXT.1.1|9=56|35=0|34=25|49=CLIENT|52=20241203-14:36:23.379|56=SERVER|10=245|
20241203-14:36:48.000000000 : 8=FIXT.1.1|9=56|35=0|34=26|49=SERVER|52=20241203-14:36:48.000|56=CLIENT|10=234|
20241203-14:36:53.000000000 : 8=FIXT.1.1|9=56|35=0|34=26|49=CLIENT|52=20241203-14:36:53.570|56=SERVER|10=242|
20241203-14:37:18.000000000 : 8=FIXT.1.1|9=56|35=0|34=27|49=SERVER|52=20241203-14:37:18.000|56=CLIENT|10=233|
20241203-14:37:23.000000000 : 8=FIXT.1.1|9=56|35=0|34=27|49=CLIENT|52=20241203-14:37:23.796|56=SERVER|10=251|
20241203-14:37:48.000000000 : 8=FIXT.1.1|9=56|35=0|34=28|49=SERVER|52=20241203-14:37:48.000|56=CLIENT|10=237|
20241203-14:37:54.000000000 : 8=FIXT.1.1|9=56|35=0|34=28|49=CLIENT|52=20241203-14:37:54.022|56=SERVER|10=238|
20241203-14:38:18.000000000 : 8=FIXT.1.1|9=56|35=0|34=29|49=SERVER|52=20241203-14:38:18.000|56=CLIENT|10=236|
20241203-14:38:24.000000000 : 8=FIXT.1.1|9=56|35=0|34=29|49=CLIENT|52=20241203-14:38:24.241|56=SERVER|10=240|
20241203-14:38:48.000000000 : 8=FIXT.1.1|9=56|35=0|34=30|49=SERVER|52=20241203-14:38:48.000|56=CLIENT|10=231|
20241203-14:38:54.000000000 : 8=FIXT.1.1|9=56|35=0|34=30|49=CLIENT|52=20241203-14:38:54.448|56=SERVER|10=244|
20241203-14:39:18.000000000 : 8=FIXT.1.1|9=56|35=0|34=31|49=SERVER|52=20241203-14:39:18.000|56=CLIENT|10=230|
20241203-14:39:24.000000000 : 8=FIXT.1.1|9=56|35=0|34=31|49=CLIENT|52=20241203-14:39:24.678|56=SERVER|10=248|
20241203-14:39:48.000000000 : 8=FIXT.1.1|9=56|35=0|34=32|49=SERVER|52=20241203-14:39:48.000|56=CLIENT|10=234|
20241203-14:39:54.000000000 : 8=FIXT.1.1|9=56|35=0|34=32|49=CLIENT|52=20241203-14:39:54.890|56=SERVER|10=248|
20241203-14:40:18.000000000 : 8=FIXT.1.1|9=56|35=0|34=33|49=SERVER|52=20241203-14:40:18.000|56=CLIENT|10=224|
20241203-14:40:25.000000000 : 8=FIXT.1.1|9=56|35=0|34=33|49=CLIENT|52=20241203-14:40:25.078|56=SERVER|10=237|
20241203-14:40:48.000000000 : 8=FIXT.1.1|9=56|35=0|34=34|49=SERVER|52=20241203-14:40:48.000|56=CLIENT|10=228|
20241203-14:40:55.000000000 : 8=FIXT.1.1|9=56|35=0|34=34|49=CLIENT|52=20241203-14:40:55.269|56=SERVER|10=243|
20241203-14:41:18.000000000 : 8=FIXT.1.1|9=56|35=0|34=35|49=SERVER|52=20241203-14:41:18.000|56=CLIENT|10=227|
20241203-14:41:25.000000000 : 8=FIXT.1.1|9=56|35=0|34=35|49=CLIENT|52=20241203-14:41:25.471|56=SERVER|10=237|
20241203-14:41:48.000000000 : 8=FIXT.1.1|9=56|35=0|34=36|49=SERVER|52=20241203-14:41:48.000|56=CLIENT|10=231|
20241203-14:41:55.000000000 : 8=FIXT.1.1|9=56|35=0|34=36|49=CLIENT|52=20241203-14:41:55.688|56=SERVER|10=251|
20241203-14:42:18.000000000 : 8=FIXT.1.1|9=56|35=0|34=37|49=SERVER|52=20241203-14:42:18.000|56=CLIENT|10=230|
20241203-14:42:25.000000000 : 8=FIXT.1.1|9=56|35=0|34=37|49=CLIENT|52=20241203-14:42:25.872|56=SERVER|10=245|
20241203-14:42:48.000000000 : 8=FIXT.1.1|9=56|35=0|34=38|49=SERVER|52=20241203-14:42:48.000|56=CLIENT|10=234|
20241203-14:42:56.000000000 : 8=FIXT.1.1|9=56|35=0|34=38|49=CLIENT|52=20241203-14:42:56.075|56=SERVER|10=245|
20241203-14:43:18.000000000 : 8=FIXT.1.1|9=56|35=0|34=39|49=SERVER|52=20241203-14:43:18.000|56=CLIENT|10=233|
20241203-14:43:26.000000000 : 8=FIXT.1.1|9=56|35=0|34=39|49=CLIENT|52=20241203-14:43:26.294|56=SERVER|10=247|
20241203-14:43:48.000000000 : 8=FIXT.1.1|9=56|35=0|34=40|49=SERVER|52=20241203-14:43:48.000|56=CLIENT|10=228|
20241203-14:43:56.000000000 : 8=FIXT.1.1|9=56|35=0|34=40|49=CLIENT|52=20241203-14:43:56.502|56=SERVER|10=234|
20241203-14:44:18.000000000 : 8=FIXT.1.1|9=56|35=0|34=41|49=SERVER|52=20241203-14:44:18.000|56=CLIENT|10=227|
20241203-14:44:26.000000000 : 8=FIXT.1.1|9=56|35=0|34=41|49=CLIENT|52=20241203-14:44:26.737|56=SERVER|10=243|
20241203-14:44:48.000000000 : 8=FIXT.1.1|9=56|35=0|34=42|49=SERVER|52=20241203-14:44:48.000|56=CLIENT|10=231|
20241203-14:44:56.000000000 : 8=FIXT.1.1|9=56|35=0|34=42|49=CLIENT|52=20241203-14:44:56.937|56=SERVER|10=249|
20241203-14:45:18.000000000 : 8=FIXT.1.1|9=56|35=0|34=43|49=SERVER|52=20241203-14:45:18.000|56=CLIENT|10=230|
20241203-14:45:27.000000000 : 8=FIXT.1.1|9=56|35=0|34=43|49=CLIENT|52=20241203-14:45:27.134|56=SERVER|10=238|
20241203-14:45:48.000000000 : 8=FIXT.1.1|9=56|35=0|34=44|49=SERVER|52=20241203-14:45:48.000|56=CLIENT|10=234|
20241203-14:45:57.000000000 : 8=FIXT.1.1|9=56|35=0|34=44|49=CLIENT|52=20241203-14:45:57.347|56=SERVER|10=248|
20241203-14:46:18.000000000 : 8=FIXT.1.1|9=56|35=0|34=45|49=SERVER|52=20241203-14:46:18.000|56=CLIENT|10=233|
20241203-14:46:27.000000000 : 8=FIXT.1.1|9=56|35=0|34=45|49=CLIENT|52=20241203-14:46:27.567|56=SERVER|10=251|
20241203-14:46:48.000000000 : 8=FIXT.1.1|9=56|35=0|34=46|49=SERVER|52=20241203-14:46:48.000|56=CLIENT|10=237|
20241203-14:46:57.000000000 : 8=FIXT.1.1|9=56|35=0|34=46|49=CLIENT|52=20241203-14:46:57.777|56=SERVER|10=002|
20241203-14:47:18.000000000 : 8=FIXT.1.1|9=56|35=0|34=47|49=SERVER|52=20241203-14:47:18.000|56=CLIENT|10=236|
20241203-14:47:27.000000000 : 8=FIXT.1.1|9=56|35=0|34=47|49=CLIENT|52=20241203-14:47:27.957|56=SERVER|10=001|
20241203-14:47:48.000000000 : 8=FIXT.1.1|9=56|35=0|34=48|49=SERVER|52=20241203-14:47:48.000|56=CLIENT|10=240|
20241203-14:47:58.000000000 : 8=FIXT.1.1|9=56|35=0|34=48|49=CLIENT|52=20241203-14:47:58.153|56=SERVER|10=250|
20241203-14:48:18.000000000 : 8=FIXT.1.1|9=56|35=0|34=49|49=SERVER|52=20241203-14:48:18.000|56=CLIENT|10=239|
20241203-14:48:28.000000000 : 8=FIXT.1.1|9=56|35=0|34=49|49=CLIENT|52=20241203-14:48:28.348|56=SERVER|10=255|
20241203-14:48:48.000000000 : 8=FIXT.1.1|9=56|35=0|34=50|49=SERVER|52=20241203-14:48:48.000|56=CLIENT|10=234|
20241203-14:48:58.000000000 : 8=FIXT.1.1|9=56|35=0|34=50|49=CLIENT|52=20241203-14:48:58.565|56=SERVER|10=251|
20241203-14:49:18.000000000 : 8=FIXT.1.1|9=56|35=0|34=51|49=SERVER|52=20241203-14:49:18.000|56=CLIENT|10=233|
20241203-14:49:28.000000000 : 8=FIXT.1.1|9=56|35=0|34=51|49=CLIENT|52=20241203-14:49:28.775|56=SERVER|10=253|
20241203-14:49:48.000000000 : 8=FIXT.1.1|9=56|35=0|34=52|49=SERVER|52=20241203-14:49:48.000|56=CLIENT|10=237|
20241203-14:49:58.000000000 : 8=FIXT.1.1|9=56|35=0|34=52|49=CLIENT|52=20241203-14:49:58.994|56=SERVER|10=004|
20241203-14:50:18.000000000 : 8=FIXT.1.1|9=56|35=0|34=53|49=SERVER|52=20241203-14:50:18.000|56=CLIENT|10=227|
20241203-14:50:29.000000000 : 8=FIXT.1.1|9=56|35=0|34=53|49=CLIENT|52=20241203-14:50:29.176|56=SERVER|10=243|
20241203-14:50:48.000000000 : 8=FIXT.1.1|9=56|35=0|34=54|49=SERVER|52=20241203-14:50:48.000|56=CLIENT|10=231|
20241203-14:50:59.000000000 : 8=FIXT.1.1|9=56|35=0|34=54|49=CLIENT|52=20241203-14:50:59.385|56=SERVER|10=249|
20241203-14:51:18.000000000 : 8=FIXT.1.1|9=56|35=0|34=55|49=SERVER|52=20241203-14:51:18.000|56=CLIENT|10=230|
20241203-14:51:29.000000000 : 8=FIXT.1.1|9=56|35=0|34=55|49=CLIENT|52=20241203-14:51:29.576|56=SERVER|10=250|
20241203-14:51:48.000000000 : 8=FIXT.1.1|9=56|35=0|34=56|49=SERVER|52=20241203-14:51:48.000|56=CLIENT|10=234|
20241203-14:51:59.000000000 : 8=FIXT.1.1|9=56|35=0|34=56|49=CLIENT|52=20241203-14:51:59.784|56=SERVER|10=255|
20241203-14:52:18.000000000 : 8=FIXT.1.1|9=56|35=0|34=57|49=SERVER|52=20241203-14:52:18.000|56=CLIENT|10=233|
20241203-14:52:30.000000000 : 8=FIXT.1.1|9=56|35=0|34=57|49=CLIENT|52=20241203-14:52:30.005|56=SERVER|10=232|
20241203-14:52:48.000000000 : 8=FIXT.1.1|9=56|35=0|34=58|49=SERVER|52=20241203-14:52:48.000|56=CLIENT|10=237|
20241203-14:53:00.000000000 : 8=FIXT.1.1|9=56|35=0|34=58|49=CLIENT|52=20241203-14:53:00.210|56=SERVER|10=229|
20241203-14:53:18.000000000 : 8=FIXT.1.1|9=56|35=0|34=59|49=SERVER|52=20241203-14:53:18.000|56=CLIENT|10=236|
20241203-14:53:30.000000000 : 8=FIXT.1.1|9=56|35=0|34=59|49=CLIENT|52=20241203-14:53:30.394|56=SERVER|10=246|
20241203-14:53:48.000000000 : 8=FIXT.1.1|9=56|35=0|34=60|49=SERVER|52=20241203-14:53:48.000|56=CLIENT|10=231|
20241203-14:54:00.000000000 : 8=FIXT.1.1|9=56|35=0|34=60|49=CLIENT|52=20241203-14:54:00.602|56=SERVER|10=228|
20241203-14:54:18.000000000 : 8=FIXT.1.1|9=56|35=0|34=61|49=SERVER|52=20241203-14:54:18.000|56=CLIENT|10=230|
20241203-14:54:30.000000000 : 8=FIXT.1.1|9=56|35=0|34=61|49=CLIENT|52=20241203-14:54:30.785|56=SERVER|10=244|
20241203-14:54:48.000000000 : 8=FIXT.1.1|9=56|35=0|34=62|49=SERVER|52=20241203-14:54:48.000|56=CLIENT|10=234|
20241203-14:55:00.000000000 : 8=FIXT.1.1|9=56|35=0|34=62|49=CLIENT|52=20241203-14:55:00.986|56=SERVER|10=246|
20241203-14:55:18.000000000 : 8=FIXT.1.1|9=56|35=0|34=63|49=SERVER|52=20241203-14:55:18.000|56=CLIENT|10=233|
20241203-14:55:31.000000000 : 8=FIXT.1.1|9=56|35=0|34=63|49=CLIENT|52=20241203-14:55:31.238|56=SERVER|10=241|
20241203-14:55:48.000000000 : 8=FIXT.1.1|9=56|35=0|34=64|49=SERVER|52=20241203-14:55:48.000|56=CLIENT|10=237|
20241203-14:56:01.000000000 : 8=FIXT.1.1|9=56|35=0|34=64|49=CLIENT|52=20241203-14:56:01.439|56=SERVER|10=243|
20241203-14:56:18.000000000 : 8=FIXT.1.1|9=56|35=0|34=65|49=SERVER|52=20241203-14:56:18.000|56=CLIENT|10=236|
20241203-14:56:31.000000000 : 8=FIXT.1.1|9=56|35=0|34=65|49=CLIENT|52=20241203-14:56:31.617|56=SERVER|10=245|
20241203-14:56:48.000000000 : 8=FIXT.1.1|9=56|35=0|34=66|49=SERVER|52=20241203-14:56:48.000|56=CLIENT|10=240|
20241203-14:57:01.000000000 : 8=FIXT.1.1|9=56|35=0|34=66|49=CLIENT|52=20241203-14:57:01.796|56=SERVER|10=252|
20241203-14:57:18.000000000 : 8=FIXT.1.1|9=56|35=0|34=67|49=SERVER|52=20241203-14:57:18.000|56=CLIENT|10=239|
20241203-14:57:31.000000000 : 8=FIXT.1.1|9=56|35=0|34=67|49=CLIENT|52=20241203-14:57:31.997|56=SERVER|10=003|
20241203-14:57:48.000000000 : 8=FIXT.1.1|9=56|35=0|34=68|49=SERVER|52=20241203-14:57:48.000|56=CLIENT|10=243|
20241203-14:58:02.000000000 : 8=FIXT.1.1|9=56|35=0|34=68|49=CLIENT|52=20241203-14:58:02.259|56=SERVER|10=250|
20241203-14:58:18.000000000 : 8=FIXT.1.1|9=56|35=0|34=69|49=SERVER|52=20241203-14:58:18.000|56=CLIENT|10=242|
20241203-14:58:32.000000000 : 8=FIXT.1.1|9=56|35=0|34=69|49=CLIENT|52=20241203-14:58:32.515|56=SERVER|10=249|
20241203-14:58:48.000000000 : 8=FIXT.1.1|9=56|35=0|34=70|49=SERVER|52=20241203-14:58:48.000|56=CLIENT|10=237|
20241203-14:59:02.000000000 : 8=FIXT.1.1|9=56|35=0|34=70|49=CLIENT|52=20241203-14:59:02.715|56=SERVER|10=241|
20241203-14:59:18.000000000 : 8=FIXT.1.1|9=56|35=0|34=71|49=SERVER|52=20241203-14:59:18.000|56=CLIENT|10=236|
20241203-14:59:32.000000000 : 8=FIXT.1.1|9=56|35=0|34=71|49=CLIENT|52=20241203-14:59:32.907|56=SERVER|10=248|
20241203-14:59:49.000000000 : 8=FIXT.1.1|9=56|35=0|34=72|49=SERVER|52=20241203-14:59:49.000|56=CLIENT|10=241|
20241203-15:00:03.000000000 : 8=FIXT.1.1|9=56|35=0|34=72|49=CLIENT|52=20241203-15:00:03.102|56=SERVER|10=221|
20241203-15:00:19.000000000 : 8=FIXT.1.1|9=56|35=0|34=73|49=SERVER|52=20241203-15:00:19.000|56=CLIENT|10=226|
20241203-15:00:33.000000000 : 8=FIXT.1.1|9=56|35=0|34=73|49=CLIENT|52=20241203-15:00:33.290|56=SERVER|10=233|
20241203-15:00:49.000000000 : 8=FIXT.1.1|9=56|35=0|34=74|49=SERVER|52=20241203-15:00:49.000|56=CLIENT|10=230|
20241203-15:01:03.000000000 : 8=FIXT.1.1|9=56|35=0|34=74|49=CLIENT|52=20241203-15:01:03.505|56=SERVER|10=231|
20241203-15:01:19.000000000 : 8=FIXT.1.1|9=56|35=0|34=75|49=SERVER|52=20241203-15:01:19.000|56=CLIENT|10=229|
20241203-15:01:33.000000000 : 8=FIXT.1.1|9=56|35=0|34=75|49=CLIENT|52=20241203-15:01:33.675|56=SERVER|10=243|
20241203-15:01:49.000000000 : 8=FIXT.1.1|9=56|35=0|34=76|49=SERVER|52=20241203-15:01:49.000|56=CLIENT|10=233|
20241203-15:02:03.000000000 : 8=FIXT.1.1|9=56|35=0|34=76|49=CLIENT|52=20241203-15:02:03.874|56=SERVER|10=243|
20241203-15:02:19.000000000 : 8=FIXT.1.1|9=56|35=0|34=77|49=SERVER|52=20241203-15:02:19.000|56=CLIENT|10=232|
20241203-15:02:34.000000000 : 8=FIXT.1.1|9=56|35=0|34=77|49=CLIENT|52=20241203-15:02:34.089|56=SERVER|10=246|
20241203-15:02:49.000000000 : 8=FIXT.1.1|9=56|35=0|34=78|49=SERVER|52=20241203-15:02:49.000|56=CLIENT|10=236|
20241203-15:03:04.000000000 : 8=FIXT.1.1|9=56|35=0|34=78|49=CLIENT|52=20241203-15:03:04.295|56=SERVER|10=244|
20241203-15:03:19.000000000 : 8=FIXT.1.1|9=56|35=0|34=79|49=SERVER|52=20241203-15:03:19.000|56=CLIENT|10=235|
20241203-15:03:34.000000000 : 8=FIXT.1.1|9=56|35=0|34=79|49=CLIENT|52=20241203-15:03:34.511|56=SERVER|10=239|
20241203-15:03:49.000000000 : 8=FIXT.1.1|9=56|35=0|34=80|49=SERVER|52=20241203-15:03:49.000|56=CLIENT|10=230|
20241203-15:04:04.000000000 : 8=FIXT.1.1|9=56|35=0|34=80|49=CLIENT|52=20241203-15:04:04.693|56=SERVER|10=240|
20241203-15:04:19.000000000 : 8=FIXT.1.1|9=56|35=0|34=81|49=SERVER|52=20241203-15:04:19.000|56=CLIENT|10=229|
20241203-15:04:34.000000000 : 8=FIXT.1.1|9=56|35=0|34=81|49=CLIENT|52=20241203-15:04:34.893|56=SERVER|10=246|
20241203-15:04:49.000000000 : 8=FIXT.1.1|9=56|35=0|34=82|49=SERVER|52=20241203-15:04:49.000|56=CLIENT|10=233|
20241203-15:05:05.000000000 : 8=FIXT.1.1|9=56|35=0|34=82|49=CLIENT|52=20241203-15:05:05.091|56=SERVER|10=236|
20241203-15:05:19.000000000 : 8=FIXT.1.1|9=56|35=0|34=83|49=SERVER|52=20241203-15:05:19.000|56=CLIENT|10=232|
20241203-15:05:35.000000000 : 8=FIXT.1.1|9=56|35=0|34=83|49=CLIENT|52=20241203-15:05:35.278|56=SERVER|10=247|
20241203-15:05:49.000000000 : 8=FIXT.1.1|9=56|35=0|34=84|49=SERVER|52=20241203-15:05:49.000|56=CLIENT|10=236|
20241203-15:06:05.000000000 : 8=FIXT.1.1|9=56|35=0|34=84|49=CLIENT|52=20241203-15:06:05.456|56=SERVER|10=244|
20241203-15:06:19.000000000 : 8=FIXT.1.1|9=56|35=0|34=85|49=SERVER|52=20241203-15:06:19.000|56=CLIENT|10=235|
20241203-15:06:35.000000000 : 8=FIXT.1.1|9=56|35=0|34=85|49=CLIENT|52=20241203-15:06:35.666|56=SERVER|10=251|
20241203-15:06:50.000000000 : 8=FIXT.1.1|9=75|35=A|34=86|49=CLIENT|52=20241203-15:06:50.225|56=SERVER|98=0|108=30|1137=9|10=094|
20241203-15:06:50.000000000 : 8=FIXT.1.1|9=74|35=A|34=1|49=SERVER|52=20241203-15:06:50.000|56=CLIENT|98=0|108=30|1137=9|10=023|
20241203-15:06:50.000000000 : 8=FIXT.1.1|9=64|35=2|34=2|49=SERVER|52=20241203-15:06:50.000|56=CLIENT|7=1|16=0|10=039|
20241203-15:06:50.000000000 : 8=FIXT.1.1|9=106|35=5|34=87|49=CLIENT|52=20241203-15:06:50.256|56=SERVER|58=MsgSeqNum too low, expecting 86 but received 1|10=249|
20241203-15:06:50.000000000 : 8=FIXT.1.1|9=55|35=5|34=3|49=SERVER|52=20241203-15:06:50.000|56=CLIENT|10=176|
20241203-15:16:35.000000000 : 8=FIXT.1.1|9=80|35=A|34=1|49=CLIENT|52=20241203-15:16:35.336|56=SERVER|98=0|108=30|141=Y|1137=9|10=081|
20241203-15:16:35.000000000 : 8=FIXT.1.1|9=80|35=A|34=1|49=SERVER|52=20241203-15:16:35.000|56=CLIENT|98=0|108=30|141=Y|1137=9|10=069|
20241203-15:16:36.000000000 : 8=FIXT.1.1|9=208|35=X|34=2|49=CLIENT|52=20241203-15:16:36.256|56=SERVER|11=12345|38=10|44=9.420|55=HMETAIV|58=Custom FIX message|167=4|268=2|269=0|279=0|299=13169192678404696254|423=9|963=43030|1018=0|1022=HASH|1070=0|1500=5|10=062|
20241203-15:16:36.000000000 : 8=FIXT.1.1|9=120|35=3|34=2|49=SERVER|52=20241203-15:16:36.000|56=CLIENT|45=2|58=Tag not defined for this message type|371=11|372=X|373=2|10=123|
20241203-15:16:37.000000000 : 8=FIXT.1.1|9=208|35=X|34=3|49=CLIENT|52=20241203-15:16:37.266|56=SERVER|11=12345|38=10|44=9.420|55=HMETAIV|58=Custom FIX message|167=4|268=2|269=0|279=0|299=13169192678404696254|423=9|963=43030|1018=0|1022=HASH|1070=0|1500=5|10=065|
20241203-15:16:37.000000000 : 8=FIXT.1.1|9=120|35=3|34=3|49=SERVER|52=20241203-15:16:37.000|56=CLIENT|45=3|58=Tag not defined for this message type|371=11|372=X|373=2|10=126|
20241203-15:16:38.000000000 : 8=FIXT.1.1|9=208|35=X|34=4|49=CLIENT|52=20241203-15:16:38.272|56=SERVER|11=12345|38=10|44=9.420|55=HMETAIV|58=Custom FIX message|167=4|268=2|269=0|279=0|299=13169192678404696254|423=9|963=43030|1018=0|1022=HASH|1070=0|1500=5|10=064|
20241203-15:16:38.000000000 : 8=FIXT.1.1|9=120|35=3|34=4|49=SERVER|52=20241203-15:16:38.000|56=CLIENT|45=4|58=Tag not defined for this message type|371=11|372=X|373=2|10=129|
20241203-15:16:39.000000000 : 8=FIXT.1.1|9=208|35=X|34=5|49=CLIENT|52=20241203-15:16:39.291|56=SERVER|11=12345|38=10|44=9.420|55=HMETAIV|58=Custom FIX message|167=4|268=2|269=0|279=0|299=13169192678404696254|423=9|963=43030|1018=0|1022=HASH|1070=0|1500=5|10=067|
20241203-15:16:39.000000000 : 8=FIXT.1.1|9=120|35=3|34=5|49=SERVER|52=20241203-15:16:39.000|56=CLIENT|45=5|58=Tag not defined for this message type|371=11|372=X|373=2|10=132|
20241203-15:16:40.000000000 : 8=FIXT.1.1|9=208|35=X|34=6|49=CLIENT|52=20241203-15:16:40.301|56=SERVER|11=12345|38=10|44=9.420|55=HMETAIV|58=Custom FIX message|167=4|268=2|269=0|279=0|299=13169192678404696254|423=9|963=43030|1018=0|1022=HASH|1070=0|1500=5|10=052|
20241203-15:16:40.000000000 : 8=FIXT.1.1|9=120|35=3|34=6|49=SERVER|52=20241203-15:16:40.000|56=CLIENT|45=6|58=Tag not defined for this message type|371=11|372=X|373=2|10=126|
20241203-15:16:41.000000000 : 8=FIXT.1.1|9=208|35=X|34=7|49=CLIENT|52=20241203-15:16:41.320|56=SERVER|11=12345|38=10|44=9.420|55=HMETAIV|58=Custom FIX message|167=4|268=2|269=0|279=0|299=13169192678404696254|423=9|963=43030|1018=0|1022=HASH|1070=0|1500=5|10=055|
20241203-15:16:41.000000000 : 8=FIXT.1.1|9=120|35=3|34=7|49=SERVER|52=20241203-15:16:41.000|56=CLIENT|45=7|58=Tag not defined for this message type|371=11|372=X|373=2|10=129|
20241203-15:16:42.000000000 : 8=FIXT.1.1|9=208|35=X|34=8|49=CLIENT|52=20241203-15:16:42.328|56=SERVER|11=12345|38=10|44=9.420|55=HMETAIV|58=Custom FIX message|167=4|268=2|269=0|279=0|299=13169192678404696254|423=9|963=43030|1018=0|1022=HASH|1070=0|1500=5|10=065|
20241203-15:16:42.000000000 : 8=FIXT.1.1|9=120|35=3|34=8|49=SERVER|52=20241203-15:16:42.000|56=CLIENT|45=8|58=Tag not defined for this message type|371=11|372=X|373=2|10=132|
20241203-15:16:43.000000000 : 8=FIXT.1.1|9=208|35=X|34=9|49=CLIENT|52=20241203-15:16:43.333|56=SERVER|11=12345|38=10|44=9.420|55=HMETAIV|58=Custom FIX message|167=4|268=2|269=0|279=0|299=13169192678404696254|423=9|963=43030|1018=0|1022=HASH|1070=0|1500=5|10=063|
20241203-15:16:43.000000000 : 8=FIXT.1.1|9=120|35=3|34=9|49=SERVER|52=20241203-15:16:43.000|56=CLIENT|45=9|58=Tag not defined for this message type|371=11|372=X|373=2|10=135|
20241203-15:16:44.000000000 : 8=FIXT.1.1|9=209|35=X|34=10|49=CLIENT|52=20241203-15:16:44.336|56=SERVER|11=12345|38=10|44=9.420|55=HMETAIV|58=Custom FIX message|167=4|268=2|269=0|279=0|299=13169192678404696254|423=9|963=43030|1018=0|1022=HASH|1070=0|1500=5|10=108|
20241203-15:16:44.000000000 : 8=FIXT.1.1|9=122|35=3|34=10|49=SERVER|52=20241203-15:16:44.000|56=CLIENT|45=10|58=Tag not defined for this message type|371=11|372=X|373=2|10=218|
20241203-15:16:45.000000000 : 8=FIXT.1.1|9=209|35=X|34=11|49=CLIENT|52=20241203-15:16:45.340|56=SERVER|11=12345|38=10|44=9.420|55=HMETAIV|58=Custom FIX message|167=4|268=2|269=0|279=0|299=13169192678404696254|423=9|963=43030|1018=0|1022=HASH|1070=0|1500=5|10=105|
20241203-15:16:45.000000000 : 8=FIXT.1.1|9=122|35=3|34=11|49=SERVER|52=20241203-15:16:45.000|56=CLIENT|45=11|58=Tag not defined for this message type|371=11|372=X|373=2|10=221|
20241203-15:16:46.000000000 : 8=FIXT.1.1|9=209|35=X|34=12|49=CLIENT|52=20241203-15:16:46.346|56=SERVER|11=12345|38=10|44=9.420|55=HMETAIV|58=Custom FIX message|167=4|268=2|269=0|279=0|299=13169192678404696254|423=9|963=43030|1018=0|1022=HASH|1070=0|1500=5|10=113|
20241203-15:16:46.000000000 : 8=FIXT.1.1|9=122|35=3|34=12|49=SERVER|52=20241203-15:16:46.000|56=CLIENT|45=12|58=Tag not defined for this message type|371=11|372=X|373=2|10=224|
20241203-15:16:47.000000000 : 8=FIXT.1.1|9=209|35=X|34=13|49=CLIENT|52=20241203-15:16:47.351|56=SERVER|11=12345|38=10|44=9.420|55=HMETAIV|58=Custom FIX message|167=4|268=2|269=0|279=0|299=13169192678404696254|423=9|963=43030|1018=0|1022=HASH|1070=0|1500=5|10=111|
20241203-15:16:47.000000000 : 8=FIXT.1.1|9=122|35=3|34=13|49=SERVER|52=20241203-15:16:47.000|56=CLIENT|45=13|58=Tag not defined for this message type|371=11|372=X|373=2|10=227|
20241203-15:16:48.000000000 : 8=FIXT.1.1|9=209|35=X|34=14|49=CLIENT|52=20241203-15:16:48.358|56=SERVER|11=12345|38=10|44=9.420|55=HMETAIV|58=Custom FIX message|167=4|268=2|269=0|279=0|299=13169192678404696254|423=9|963=43030|1018=0|1022=HASH|1070=0|1500=5|10=120|
20241203-15:16:48.000000000 : 8=FIXT.1.1|9=122|35=3|34=14|49=SERVER|52=20241203-15:16:48.000|56=CLIENT|45=14|58=Tag not defined for this message type|371=11|372=X|373=2|10=230|
20241203-15:16:49.000000000 : 8=FIXT.1.1|9=209|35=X|34=15|49=CLIENT|52=20241203-15:16:49.363|56=SERVER|11=12345|38=10|44=9.420|55=HMETAIV|58=Custom FIX message|167=4|268=2|269=0|279=0|299=13169192678404696254|423=9|963=43030|1018=0|1022=HASH|1070=0|1500=5|10=118|
20241203-15:16:49.000000000 : 8=FIXT.1.1|9=122|35=3|34=15|49=SERVER|52=20241203-15:16:49.000|56=CLIENT|45=15|58=Tag not defined for this message type|371=11|372=X|373=2|10=233|
20241203-15:16:50.000000000 : 8=FIXT.1.1|9=209|35=X|34=16|49=CLIENT|52=20241203-15:16:50.372|56=SERVER|11=12345|38=10|44=9.420|55=HMETAIV|58=Custom FIX message|167=4|268=2|269=0|279=0|299=13169192678404696254|423=9|963=43030|1018=0|1022=HASH|1070=0|1500=5|10=111|
20241203-15:16:50.000000000 : 8=FIXT.1.1|9=122|35=3|34=16|49=SERVER|52=20241203-15:16:50.000|56=CLIENT|45=16|58=Tag not defined for this message type|371=11|372=X|373=2|10=227|
20241203-15:19:19.000000000 : 8=FIXT.1.1|9=75|35=A|34=17|49=CLIENT|52=20241203-15:19:19.394|56=SERVER|98=0|108=30|1137=9|10=104|
20241203-15:19:19.000000000 : 8=FIXT.1.1|9=74|35=A|34=1|49=SERVER|52=20241203-15:19:19.000|56=CLIENT|98=0|108=30|1137=9|10=032|
20241203-15:19:19.000000000 : 8=FIXT.1.1|9=64|35=2|34=2|49=SERVER|52=20241203-15:19:19.000|56=CLIENT|7=1|16=0|10=048|
20241203-15:19:19.000000000 : 8=FIXT.1.1|9=106|35=5|34=18|49=CLIENT|52=20241203-15:19:19.468|56=SERVER|58=MsgSeqNum too low, expecting 17 but received 1|10=251|
20241203-15:19:19.000000000 : 8=FIXT.1.1|9=55|35=5|34=3|49=SERVER|52=20241203-15:19:19.000|56=CLIENT|10=185|
20241203-15:19:49.000000000 : 8=FIXT.1.1|9=80|35=A|34=1|49=CLIENT|52=20241203-15:19:49.536|56=SERVER|98=0|108=30|141=Y|1137=9|10=091|
20241203-15:19:49.000000000 : 8=FIXT.1.1|9=80|35=A|34=1|49=SERVER|52=20241203-15:19:49.000|56=CLIENT|98=0|108=30|141=Y|1137=9|10=077|
20241203-15:19:50.000000000 : 8=FIXT.1.1|9=208|35=X|34=2|49=CLIENT|52=20241203-15:19:50.503|56=SERVER|11=12345|38=10|44=9.420|55=HMETAIV|58=Custom FIX message|167=4|268=2|269=0|279=0|299=13169192678404696254|423=9|963=43030|1018=0|1022=HASH|1070=0|1500=5|10=056|
20241203-15:19:50.000000000 : 8=FIXT.1.1|9=120|35=3|34=2|49=SERVER|52=20241203-15:19:50.000|56=CLIENT|45=2|58=Tag not defined for this message type|371=11|372=X|373=2|10=122|
20241203-15:19:51.000000000 : 8=FIXT.1.1|9=208|35=X|34=3|49=CLIENT|52=20241203-15:19:51.521|56=SERVER|11=12345|38=10|44=9.420|55=HMETAIV|58=Custom FIX message|167=4|268=2|269=0|279=0|299=13169192678404696254|423=9|963=43030|1018=0|1022=HASH|1070=0|1500=5|10=058|
20241203-15:19:51.000000000 : 8=FIXT.1.1|9=120|35=3|34=3|49=SERVER|52=20241203-15:19:51.000|56=CLIENT|45=3|58=Tag not defined for this message type|371=11|372=X|373=2|10=125|
20241203-15:19:52.000000000 : 8=FIXT.1.1|9=208|35=X|34=4|49=CLIENT|52=20241203-15:19:52.526|56=SERVER|11=12345|38=10|44=9.420|55=HMETAIV|58=Custom FIX message|167=4|268=2|269=0|279=0|299=13169192678404696254|423=9|963=43030|1018=0|1022=HASH|1070=0|1500=5|10=065|
20241203-15:19:52.000000000 : 8=FIXT.1.1|9=120|35=3|34=4|49=SERVER|52=20241203-15:19:52.000|56=CLIENT|45=4|58=Tag not defined for this message type|371=11|372=X|373=2|10=128|
20241203-15:19:53.000000000 : 8=FIXT.1.1|9=208|35=X|34=5|49=CLIENT|52=20241203-15:19:53.547|56=SERVER|11=12345|38=10|44=9.420|55=HMETAIV|58=Custom FIX message|167=4|268=2|269=0|279=0|299=13169192678404696254|423=9|963=43030|1018=0|1022=HASH|1070=0|1500=5|10=070|
20241203-15:19:53.000000000 : 8=FIXT.1.1|9=120|35=3|34=5|49=SERVER|52=20241203-15:19:53.000|56=CLIENT|45=5|58=Tag not defined for this message type|371=11|372=X|373=2|10=131|
20241203-15:19:54.000000000 : 8=FIXT.1.1|9=208|35=X|34=6|49=CLIENT|52=20241203-15:19:54.557|56=SERVER|11=12345|38=10|44=9.420|55=HMETAIV|58=Custom FIX message|167=4|268=2|269=0|279=0|299=13169192678404696254|423=9|963=43030|1018=0|1022=HASH|1070=0|1500=5|10=073|
20241203-15:19:54.000000000 : 8=FIXT.1.1|9=120|35=3|34=6|49=SERVER|52=20241203-15:19:54.000|56=CLIENT|45=6|58=Tag not defined for this message type|371=11|372=X|373=2|10=134|
20241203-15:19:55.000000000 : 8=FIXT.1.1|9=208|35=X|34=7|49=CLIENT|52=20241203-15:19:55.560|56=SERVER|11=12345|38=10|44=9.420|55=HMETAIV|58=Custom FIX message|167=4|268=2|269=0|279=0|299=13169192678404696254|423=9|963=43030|1018=0|1022=HASH|1070=0|1500=5|10=069|
20241203-15:19:55.000000000 : 8=FIXT.1.1|9=120|35=3|34=7|49=SERVER|52=20241203-15:19:55.000|56=CLIENT|45=7|58=Tag not defined for this message type|371=11|372=X|373=2|10=137|
20241203-15:19:56.000000000 : 8=FIXT.1.1|9=208|35=X|34=8|49=CLIENT|52=20241203-15:19:56.577|56=SERVER|11=12345|38=10|44=9.420|55=HMETAIV|58=Custom FIX message|167=4|268=2|269=0|279=0|299=13169192678404696254|423=9|963=43030|1018=0|1022=HASH|1070=0|1500=5|10=079|
20241203-15:19:56.000000000 : 8=FIXT.1.1|9=120|35=3|34=8|49=SERVER|52=20241203-15:19:56.000|56=CLIENT|45=8|58=Tag not defined for this message type|371=11|372=X|373=2|10=140|
20241203-15:19:57.000000000 : 8=FIXT.1.1|9=208|35=X|34=9|49=CLIENT|52=20241203-15:19:57.584|56=SERVER|11=12345|38=10|44=9.420|55=HMETAIV|58=Custom FIX message|167=4|268=2|269=0|279=0|299=13169192678404696254|423=9|963=43030|1018=0|1022=HASH|1070=0|1500=5|10=079|
20241203-15:19:57.000000000 : 8=FIXT.1.1|9=120|35=3|34=9|49=SERVER|52=20241203-15:19:57.000|56=CLIENT|45=9|58=Tag not defined for this message type|371=11|372=X|373=2|10=143|
20241203-15:19:58.000000000 : 8=FIXT.1.1|9=209|35=X|34=10|49=CLIENT|52=20241203-15:19:58.597|56=SERVER|11=12345|38=10|44=9.420|55=HMETAIV|58=Custom FIX message|167=4|268=2|269=0|279=0|299=13169192678404696254|423=9|963=43030|1018=0|1022=HASH|1070=0|1500=5|10=125|
20241203-15:19:58.000000000 : 8=FIXT.1.1|9=122|35=3|34=10|49=SERVER|52=20241203-15:19:58.000|56=CLIENT|45=10|58=Tag not defined for this message type|371=11|372=X|373=2|10=226|
20241203-15:19:59.000000000 : 8=FIXT.1.1|9=209|35=X|34=11|49=CLIENT|52=20241203-15:19:59.614|56=SERVER|11=12345|38=10|44=9.420|55=HMETAIV|58=Custom FIX message|167=4|268=2|269=0|279=0|299=13169192678404696254|423=9|963=43030|1018=0|1022=HASH|1070=0|1500=5|10=117|
20241203-15:19:59.000000000 : 8=FIXT.1.1|9=122|35=3|34=11|49=SERVER|52=20241203-15:19:59.000|56=CLIENT|45=11|58=Tag not defined for this message type|371=11|372=X|373=2|10=229|
20241203-15:20:00.000000000 : 8=FIXT.1.1|9=209|35=X|34=12|49=CLIENT|52=20241203-15:20:00.631|56=SERVER|11=12345|38=10|44=9.420|55=HMETAIV|58=Custom FIX message|167=4|268=2|269=0|279=0|299=13169192678404696254|423=9|963=43030|1018=0|1022=HASH|1070=0|1500=5|10=095|
20241203-15:20:00.000000000 : 8=FIXT.1.1|9=122|35=3|34=12|49=SERVER|52=20241203-15:20:00.000|56=CLIENT|45=12|58=Tag not defined for this message type|371=11|372=X|373=2|10=209|
20241203-15:20:01.000000000 : 8=FIXT.1.1|9=209|35=X|34=13|49=CLIENT|52=20241203-15:20:01.635|56=SERVER|11=12345|38=10|44=9.420|55=HMETAIV|58=Custom FIX message|167=4|268=2|269=0|279=0|299=13169192678404696254|423=9|963=43030|1018=0|1022=HASH|1070=0|1500=5|10=101|
20241203-15:20:01.000000000 : 8=FIXT.1.1|9=122|35=3|34=13|49=SERVER|52=20241203-15:20:01.000|56=CLIENT|45=13|58=Tag not defined for this message type|371=11|372=X|373=2|10=212|
20241203-15:23:22.000000000 : 8=FIXT.1.1|9=75|35=A|34=14|49=CLIENT|52=20241203-15:23:22.561|56=SERVER|98=0|108=30|1137=9|10=086|
20241203-15:23:22.000000000 : 8=FIXT.1.1|9=74|35=A|34=1|49=SERVER|52=20241203-15:23:22.000|56=CLIENT|98=0|108=30|1137=9|10=021|
20241203-15:23:22.000000000 : 8=FIXT.1.1|9=64|35=2|34=2|49=SERVER|52=20241203-15:23:22.000|56=CLIENT|7=1|16=0|10=037|
20241203-15:23:22.000000000 : 8=FIXT.1.1|9=106|35=5|34=15|49=CLIENT|52=20241203-15:23:22.587|56=SERVER|58=MsgSeqNum too low, expecting 14 but received 1|10=236|
20241203-15:23:22.000000000 : 8=FIXT.1.1|9=55|35=5|34=3|49=SERVER|52=20241203-15:23:22.000|56=CLIENT|10=174|
20241203-15:23:58.000000000 : 8=FIXT.1.1|9=80|35=A|34=1|49=CLIENT|52=20241203-15:23:58.969|56=SERVER|98=0|108=30|141=Y|1137=9|10=096|
20241203-15:23:58.000000000 : 8=FIXT.1.1|9=80|35=A|34=1|49=SERVER|52=20241203-15:23:58.000|56=CLIENT|98=0|108=30|141=Y|1137=9|10=072|
20241203-15:23:59.000000000 : 8=FIXT.1.1|9=218|35=X|34=2|49=CLIENT|52=20241203-15:23:59.885|56=SERVER|11=12345|38=10|44=9.420|55=HMETAIV|58=Custom FIX message|113=VALUE|167=4|268=2|269=0|279=0|299=13169192678404696254|423=9|963=43030|1018=0|1022=HASH|1070=0|1500=5|10=154|
20241203-15:23:59.000000000 : 8=FIXT.1.1|9=120|35=3|34=2|49=SERVER|52=20241203-15:23:59.000|56=CLIENT|45=2|58=Tag not defined for this message type|371=11|372=X|373=2|10=126|
20241203-15:24:00.000000000 : 8=FIXT.1.1|9=218|35=X|34=3|49=CLIENT|52=20241203-15:24:00.890|56=SERVER|11=12345|38=10|44=9.420|55=HMETAIV|58=Custom FIX message|113=VALUE|167=4|268=2|269=0|279=0|299=13169192678404696254|423=9|963=43030|1018=0|1022=HASH|1070=0|1500=5|10=138|
20241203-15:24:00.000000000 : 8=FIXT.1.1|9=120|35=3|34=3|49=SERVER|52=20241203-15:24:00.000|56=CLIENT|45=3|58=Tag not defined for this message type|371=11|372=X|373=2|10=115|
20241203-15:24:01.000000000 : 8=FIXT.1.1|9=218|35=X|34=4|49=CLIENT|52=20241203-15:24:01.901|56=SERVER|11=12345|38=10|44=9.420|55=HMETAIV|58=Custom FIX message|113=VALUE|167=4|268=2|269=0|279=0|299=13169192678404696254|423=9|963=43030|1018=0|1022=HASH|1070=0|1500=5|10=133|
20241203-15:24:01.000000000 : 8=FIXT.1.1|9=120|35=3|34=4|49=SERVER|52=20241203-15:24:01.000|56=CLIENT|45=4|58=Tag not defined for this message type|371=11|372=X|373=2|10=118|
20241203-15:24:02.000000000 : 8=FIXT.1.1|9=218|35=X|34=5|49=CLIENT|52=20241203-15:24:02.912|56=SERVER|11=12345|38=10|44=9.420|55=HMETAIV|58=Custom FIX message|113=VALUE|167=4|268=2|269=0|279=0|299=13169192678404696254|423=9|963=43030|1018=0|1022=HASH|1070=0|1500=5|10=137|
20241203-15:24:02.000000000 : 8=FIXT.1.1|9=120|35=3|34=5|49=SERVER|52=20241203-15:24:02.000|56=CLIENT|45=5|58=Tag not defined for this message type|371=11|372=X|373=2|10=121|
20241203-15:24:03.000000000 : 8=FIXT.1.1|9=218|35=X|34=6|49=CLIENT|52=20241203-15:24:03.916|56=SERVER|11=12345|38=10|44=9.420|55=HMETAIV|58=Custom FIX message|113=VALUE|167=4|268=2|269=0|279=0|299=13169192678404696254|423=9|963=43030|1018=0|1022=HASH|1070=0|1500=5|10=143|
20241203-15:24:03.000000000 : 8=FIXT.1.1|9=120|35=3|34=6|49=SERVER|52=20241203-15:24:03.000|56=CLIENT|45=6|58=Tag not defined for this message type|371=11|372=X|373=2|10=124|
20241203-15:24:04.000000000 : 8=FIXT.1.1|9=218|35=X|34=7|49=CLIENT|52=20241203-15:24:04.921|56=SERVER|11=12345|38=10|44=9.420|55=HMETAIV|58=Custom FIX message|113=VALUE|167=4|268=2|269=0|279=0|299=13169192678404696254|423=9|963=43030|1018=0|1022=HASH|1070=0|1500=5|10=141|
20241203-15:24:04.000000000 : 8=FIXT.1.1|9=120|35=3|34=7|49=SERVER|52=20241203-15:24:04.000|56=CLIENT|45=7|58=Tag not defined for this message type|371=11|372=X|373=2|10=127|
20241203-15:24:05.000000000 : 8=FIXT.1.1|9=218|35=X|34=8|49=CLIENT|52=20241203-15:24:05.924|56=SERVER|11=12345|38=10|44=9.420|55=HMETAIV|58=Custom FIX message|113=VALUE|167=4|268=2|269=0|279=0|299=13169192678404696254|423=9|963=43030|1018=0|1022=HASH|1070=0|1500=5|10=146|
20241203-15:24:05.000000000 : 8=FIXT.1.1|9=120|35=3|34=8|49=SERVER|52=20241203-15:24:05.000|56=CLIENT|45=8|58=Tag not defined for this message type|371=11|372=X|373=2|10=130|
20241203-15:24:06.000000000 : 8=FIXT.1.1|9=218|35=X|34=9|49=CLIENT|52=20241203-15:24:06.929|56=SERVER|11=12345|38=10|44=9.420|55=HMETAIV|58=Custom FIX message|113=VALUE|167=4|268=2|269=0|279=0|299=13169192678404696254|423=9|963=43030|1018=0|1022=HASH|1070=0|1500=5|10=153|
20241203-15:24:06.000000000 : 8=FIXT.1.1|9=120|35=3|34=9|49=SERVER|52=20241203-15:24:06.000|56=CLIENT|45=9|58=Tag not defined for this message type|371=11|372=X|373=2|10=133|
20241203-15:24:07.000000000 : 8=FIXT.1.1|9=219|35=X|34=10|49=CLIENT|52=20241203-15:24:07.939|56=SERVER|11=12345|38=10|44=9.420|55=HMETAIV|58=Custom FIX message|113=VALUE|167=4|268=2|269=0|279=0|299=13169192678404696254|423=9|963=43030|1018=0|1022=HASH|1070=0|1500=5|10=196|
20241203-15:24:07.000000000 : 8=FIXT.1.1|9=122|35=3|34=10|49=SERVER|52=20241203-15:24:07.000|56=CLIENT|45=10|58=Tag not defined for this message type|371=11|372=X|373=2|10=216|
20241203-15:24:08.000000000 : 8=FIXT.1.1|9=219|35=X|34=11|49=CLIENT|52=20241203-15:24:08.948|56=SERVER|11=12345|38=10|44=9.420|55=HMETAIV|58=Custom FIX message|113=VALUE|167=4|268=2|269=0|279=0|299=13169192678404696254|423=9|963=43030|1018=0|1022=HASH|1070=0|1500=5|10=198|
20241203-15:24:08.000000000 : 8=FIXT.1.1|9=122|35=3|34=11|49=SERVER|52=20241203-15:24:08.000|56=CLIENT|45=11|58=Tag not defined for this message type|371=11|372=X|373=2|10=219|
20241203-15:24:09.000000000 : 8=FIXT.1.1|9=219|35=X|34=12|49=CLIENT|52=20241203-15:24:09.951|56=SERVER|11=12345|38=10|44=9.420|55=HMETAIV|58=Custom FIX message|113=VALUE|167=4|268=2|269=0|279=0|299=13169192678404696254|423=9|963=43030|1018=0|1022=HASH|1070=0|1500=5|10=194|
20241203-15:24:09.000000000 : 8=FIXT.1.1|9=122|35=3|34=12|49=SERVER|52=20241203-15:24:09.000|56=CLIENT|45=12|58=Tag not defined for this message type|371=11|372=X|373=2|10=222|
20241203-15:24:10.000000000 : 8=FIXT.1.1|9=219|35=X|34=13|49=CLIENT|52=20241203-15:24:10.967|56=SERVER|11=12345|38=10|44=9.420|55=HMETAIV|58=Custom FIX message|113=VALUE|167=4|268=2|269=0|279=0|299=13169192678404696254|423=9|963=43030|1018=0|1022=HASH|1070=0|1500=5|10=194|
20241203-15:24:10.000000000 : 8=FIXT.1.1|9=122|35=3|34=13|49=SERVER|52=20241203-15:24:10.000|56=CLIENT|45=13|58=Tag not defined for this message type|371=11|372=X|373=2|10=216|
20241203-15:24:11.000000000 : 8=FIXT.1.1|9=219|35=X|34=14|49=CLIENT|52=20241203-15:24:11.971|56=SERVER|11=12345|38=10|44=9.420|55=HMETAIV|58=Custom FIX message|113=VALUE|167=4|268=2|269=0|279=0|299=13169192678404696254|423=9|963=43030|1018=0|1022=HASH|1070=0|1500=5|10=191|
20241203-15:24:11.000000000 : 8=FIXT.1.1|9=122|35=3|34=14|49=SERVER|52=20241203-15:24:11.000|56=CLIENT|45=14|58=Tag not defined for this message type|371=11|372=X|373=2|10=219|
20241203-15:24:12.000000000 : 8=FIXT.1.1|9=219|35=X|34=15|49=CLIENT|52=20241203-15:24:12.975|56=SERVER|11=12345|38=10|44=9.420|55=HMETAIV|58=Custom FIX message|113=VALUE|167=4|268=2|269=0|279=0|299=13169192678404696254|423=9|963=43030|1018=0|1022=HASH|1070=0|1500=5|10=197|
20241203-15:24:12.000000000 : 8=FIXT.1.1|9=122|35=3|34=15|49=SERVER|52=20241203-15:24:12.000|56=CLIENT|45=15|58=Tag not defined for this message type|371=11|372=X|373=2|10=222|
20241203-15:24:13.000000000 : 8=FIXT.1.1|9=219|35=X|34=16|49=CLIENT|52=20241203-15:24:13.992|56=SERVER|11=12345|38=10|44=9.420|55=HMETAIV|58=Custom FIX message|113=VALUE|167=4|268=2|269=0|279=0|299=13169192678404696254|423=9|963=43030|1018=0|1022=HASH|1070=0|1500=5|10=198|
20241203-15:24:13.000000000 : 8=FIXT.1.1|9=122|35=3|34=16|49=SERVER|52=20241203-15:24:13.000|56=CLIENT|45=16|58=Tag not defined for this message type|371=11|372=X|373=2|10=225|
20241203-15:24:15.000000000 : 8=FIXT.1.1|9=219|35=X|34=17|49=CLIENT|52=20241203-15:24:14.999|56=SERVER|11=12345|38=10|44=9.420|55=HMETAIV|58=Custom FIX message|113=VALUE|167=4|268=2|269=0|279=0|299=13169192678404696254|423=9|963=43030|1018=0|1022=HASH|1070=0|1500=5|10=207|
20241203-15:24:15.000000000 : 8=FIXT.1.1|9=122|35=3|34=17|49=SERVER|52=20241203-15:24:15.000|56=CLIENT|45=17|58=Tag not defined for this message type|371=11|372=X|373=2|10=229|
20241203-15:24:16.000000000 : 8=FIXT.1.1|9=219|35=X|34=18|49=CLIENT|52=20241203-15:24:16.007|56=SERVER|11=12345|38=10|44=9.420|55=HMETAIV|58=Custom FIX message|113=VALUE|167=4|268=2|269=0|279=0|299=13169192678404696254|423=9|963=43030|1018=0|1022=HASH|1070=0|1500=5|10=190|
20241203-15:24:16.000000000 : 8=FIXT.1.1|9=122|35=3|34=18|49=SERVER|52=20241203-15:24:16.000|56=CLIENT|45=18|58=Tag not defined for this message type|371=11|372=X|373=2|10=232|
20241203-15:24:17.000000000 : 8=FIXT.1.1|9=219|35=X|34=19|49=CLIENT|52=20241203-15:24:17.016|56=SERVER|11=12345|38=10|44=9.420|55=HMETAIV|58=Custom FIX message|113=VALUE|167=4|268=2|269=0|279=0|299=13169192678404696254|423=9|963=43030|1018=0|1022=HASH|1070=0|1500=5|10=192|
20241203-15:24:17.000000000 : 8=FIXT.1.1|9=122|35=3|34=19|49=SERVER|52=20241203-15:24:17.000|56=CLIENT|45=19|58=Tag not defined for this message type|371=11|372=X|373=2|10=235|
20241203-15:26:06.000000000 : 8=FIXT.1.1|9=75|35=A|34=20|49=CLIENT|52=20241203-15:26:06.964|56=SERVER|98=0|108=30|1137=9|10=095|
20241203-15:26:06.000000000 : 8=FIXT.1.1|9=74|35=A|34=1|49=SERVER|52=20241203-15:26:06.000|56=CLIENT|98=0|108=30|1137=9|10=026|
20241203-15:26:06.000000000 : 8=FIXT.1.1|9=64|35=2|34=2|49=SERVER|52=20241203-15:26:06.000|56=CLIENT|7=1|16=0|10=042|
20241203-15:26:06.000000000 : 8=FIXT.1.1|9=106|35=5|34=21|49=CLIENT|52=20241203-15:26:06.990|56=SERVER|58=MsgSeqNum too low, expecting 20 but received 1|10=233|
20241203-15:26:06.000000000 : 8=FIXT.1.1|9=55|35=5|34=3|49=SERVER|52=20241203-15:26:06.000|56=CLIENT|10=179|
20241203-15:26:37.000000000 : 8=FIXT.1.1|9=80|35=A|34=1|49=CLIENT|52=20241203-15:26:37.148|56=SERVER|98=0|108=30|141=Y|1137=9|10=085|
20241203-15:26:37.000000000 : 8=FIXT.1.1|9=80|35=A|34=1|49=SERVER|52=20241203-15:26:37.000|56=CLIENT|98=0|108=30|141=Y|1137=9|10=072|
20241203-15:26:38.000000000 : 8=FIXT.1.1|9=161|35=X|34=2|49=CLIENT|52=20241203-15:26:38.111|56=SERVER|11=12345|44=9.420|55=HMETAIV|58=Custom FIX message|167=4|299=13169192678404696254|1018=0|1022=HASH|1500=5|10=220|
20241203-15:26:38.000000000 : 8=FIXT.1.1|9=120|35=3|34=2|49=SERVER|52=20241203-15:26:38.000|56=CLIENT|45=2|58=Tag not defined for this message type|371=11|372=X|373=2|10=126|
20241203-15:26:39.000000000 : 8=FIXT.1.1|9=161|35=X|34=3|49=CLIENT|52=20241203-15:26:39.130|56=SERVER|11=12345|44=9.420|55=HMETAIV|58=Custom FIX message|167=4|299=13169192678404696254|1018=0|1022=HASH|1500=5|10=223|
20241203-15:26:39.000000000 : 8=FIXT.1.1|9=120|35=3|34=3|49=SERVER|52=20241203-15:26:39.000|56=CLIENT|45=3|58=Tag not defined for this message type|371=11|372=X|373=2|10=129|
20241203-15:26:40.000000000 : 8=FIXT.1.1|9=161|35=X|34=4|49=CLIENT|52=20241203-15:26:40.134|56=SERVER|11=12345|44=9.420|55=HMETAIV|58=Custom FIX message|167=4|299=13169192678404696254|1018=0|1022=HASH|1500=5|10=220|
20241203-15:26:40.000000000 : 8=FIXT.1.1|9=120|35=3|34=4|49=SERVER|52=20241203-15:26:40.000|56=CLIENT|45=4|58=Tag not defined for this message type|371=11|372=X|373=2|10=123|
20241203-15:26:41.000000000 : 8=FIXT.1.1|9=161|35=X|34=5|49=CLIENT|52=20241203-15:26:41.142|56=SERVER|11=12345|44=9.420|55=HMETAIV|58=Custom FIX message|167=4|299=13169192678404696254|1018=0|1022=HASH|1500=5|10=221|
20241203-15:26:41.000000000 : 8=FIXT.1.1|9=120|35=3|34=5|49=SERVER|52=20241203-15:26:41.000|56=CLIENT|45=5|58=Tag not defined for this message type|371=11|372=X|373=2|10=126|
20241203-15:26:42.000000000 : 8=FIXT.1.1|9=161|35=X|34=6|49=CLIENT|52=20241203-15:26:42.148|56=SERVER|11=12345|44=9.420|55=HMETAIV|58=Custom FIX message|167=4|299=13169192678404696254|1018=0|1022=HASH|1500=5|10=229|
20241203-15:26:42.000000000 : 8=FIXT.1.1|9=120|35=3|34=6|49=SERVER|52=20241203-15:26:42.000|56=CLIENT|45=6|58=Tag not defined for this message type|371=11|372=X|373=2|10=129|
20241203-15:26:43.000000000 : 8=FIXT.1.1|9=161|35=X|34=7|49=CLIENT|52=20241203-15:26:43.156|56=SERVER|11=12345|44=9.420|55=HMETAIV|58=Custom FIX message|167=4|299=13169192678404696254|1018=0|1022=HASH|1500=5|10=230|
20241203-15:26:43.000000000 : 8=FIXT.1.1|9=120|35=3|34=7|49=SERVER|52=20241203-15:26:43.000|56=CLIENT|45=7|58=Tag not defined for this message type|371=11|372=X|373=2|10=132|
20241203-15:26:44.000000000 : 8=FIXT.1.1|9=161|35=X|34=8|49=CLIENT|52=20241203-15:26:44.163|56=SERVER|11=12345|44=9.420|55=HMETAIV|58=Custom FIX message|167=4|299=13169192678404696254|1018=0|1022=HASH|1500=5|10=230|
20241203-15:26:44.000000000 : 8=FIXT.1.1|9=120|35=3|34=8|49=SERVER|52=20241203-15:26:44.000|56=CLIENT|45=8|58=Tag not defined for this message type|371=11|372=X|373=2|10=135|
20241203-15:26:45.000000000 : 8=FIXT.1.1|9=161|35=X|34=9|49=CLIENT|52=20241203-15:26:45.170|56=SERVER|11=12345|44=9.420|55=HMETAIV|58=Custom FIX message|167=4|299=13169192678404696254|1018=0|1022=HASH|1500=5|10=230|
20241203-15:26:45.000000000 : 8=FIXT.1.1|9=120|35=3|34=9|49=SERVER|52=20241203-15:26:45.000|56=CLIENT|45=9|58=Tag not defined for this message type|371=11|372=X|373=2|10=138|
20241203-15:26:46.000000000 : 8=FIXT.1.1|9=162|35=X|34=10|49=CLIENT|52=20241203-15:26:46.181|56=SERVER|11=12345|44=9.420|55=HMETAIV|58=Custom FIX message|167=4|299=13169192678404696254|1018=0|1022=HASH|1500=5|10=018|
20241203-15:26:46.000000000 : 8=FIXT.1.1|9=122|35=3|34=10|49=SERVER|52=20241203-15:26:46.000|56=CLIENT|45=10|58=Tag not defined for this message type|371=11|372=X|373=2|10=221|
20241203-15:26:47.000000000 : 8=FIXT.1.1|9=162|35=X|34=11|49=CLIENT|52=20241203-15:26:47.184|56=SERVER|11=12345|44=9.420|55=HMETAIV|58=Custom FIX message|167=4|299=13169192678404696254|1018=0|1022=HASH|1500=5|10=023|
20241203-15:26:47.000000000 : 8=FIXT.1.1|9=122|35=3|34=11|49=SERVER|52=20241203-15:26:47.000|56=CLIENT|45=11|58=Tag not defined for this message type|371=11|372=X|373=2|10=224|
20241203-15:26:48.000000000 : 8=FIXT.1.1|9=162|35=X|34=12|49=CLIENT|52=20241203-15:26:48.191|56=SERVER|11=12345|44=9.420|55=HMETAIV|58=Custom FIX message|167=4|299=13169192678404696254|1018=0|1022=HASH|1500=5|10=023|
20241203-15:26:48.000000000 : 8=FIXT.1.1|9=122|35=3|34=12|49=SERVER|52=20241203-15:26:48.000|56=CLIENT|45=12|58=Tag not defined for this message type|371=11|372=X|373=2|10=227|
20241203-15:27:42.000000000 : 8=FIXT.1.1|9=74|35=A|34=3|49=CLIENT|52=20241203-15:27:42.000|56=SERVER|98=0|108=30|1137=9|10=029|
20241203-15:27:42.000000000 : 8=FIXT.1.1|9=74|35=A|34=1|49=SERVER|52=20241203-15:27:42.000|56=CLIENT|98=0|108=30|1137=9|10=027|
20241203-15:27:42.000000000 : 8=FIXT.1.1|9=64|35=2|34=2|49=SERVER|52=20241203-15:27:42.000|56=CLIENT|7=1|16=0|10=043|
20241203-15:27:42.000000000 : 8=FIXT.1.1|9=104|35=5|34=4|49=CLIENT|52=20241203-15:27:42.000|56=SERVER|58=MsgSeqNum too low, expecting 2 but received 1|10=119|
20241203-15:27:42.000000000 : 8=FIXT.1.1|9=55|35=5|34=3|49=SERVER|52=20241203-15:27:42.000|56=CLIENT|10=180|
20241203-15:28:04.000000000 : 8=FIXT.1.1|9=80|35=A|34=1|49=CLIENT|52=20241203-15:28:04.000|56=SERVER|98=0|108=30|141=Y|1137=9|10=068|
20241203-15:28:04.000000000 : 8=FIXT.1.1|9=80|35=A|34=1|49=SERVER|52=20241203-15:28:04.000|56=CLIENT|98=0|108=30|141=Y|1137=9|10=068|
20241203-15:28:09.000000000 : 8=FIXT.1.1|9=207|35=X|34=2|49=CLIENT|52=20241203-15:28:09.000|56=SERVER|10=193|11=12345|38=10|44=9.42|55=HMETAIV|58=Custom FIX message|167=4|268=2|269=0|279=0|299=13169192678404696254|423=9|963=43030|1018=0|1022=HASH|1070=0|1500=5|10=003|
20241203-15:29:42.000000000 : 8=FIXT.1.1|9=75|35=A|34=13|49=CLIENT|52=20241203-15:29:42.360|56=SERVER|98=0|108=30|1137=9|10=090|
20241203-15:29:42.000000000 : 8=FIXT.1.1|9=74|35=A|34=1|49=SERVER|52=20241203-15:29:42.000|56=CLIENT|98=0|108=30|1137=9|10=029|
20241203-15:29:42.000000000 : 8=FIXT.1.1|9=64|35=2|34=2|49=SERVER|52=20241203-15:29:42.000|56=CLIENT|7=1|16=0|10=045|
20241203-15:29:42.000000000 : 8=FIXT.1.1|9=106|35=5|34=14|49=CLIENT|52=20241203-15:29:42.385|56=SERVER|58=MsgSeqNum too low, expecting 13 but received 1|10=238|
20241203-15:29:42.000000000 : 8=FIXT.1.1|9=55|35=5|34=3|49=SERVER|52=20241203-15:29:42.000|56=CLIENT|10=182|
20241203-15:30:12.000000000 : 8=FIXT.1.1|9=80|35=A|34=1|49=CLIENT|52=20241203-15:30:12.576|56=SERVER|98=0|108=30|141=Y|1137=9|10=078|
20241203-15:30:12.000000000 : 8=FIXT.1.1|9=80|35=A|34=1|49=SERVER|52=20241203-15:30:12.000|56=CLIENT|98=0|108=30|141=Y|1137=9|10=060|
20241203-15:30:13.000000000 : 8=FIXT.1.1|9=208|35=X|34=2|49=CLIENT|52=20241203-15:30:13.506|56=SERVER|11=12345|38=10|44=9.420|55=HMETAIV|58=Custom FIX message|167=4|268=2|269=0|279=0|299=13169192678404696254|423=9|963=43030|1018=0|1022=HASH|1070=0|1500=5|10=051|
20241203-15:30:13.000000000 : 8=FIXT.1.1|9=120|35=3|34=2|49=SERVER|52=20241203-15:30:13.000|56=CLIENT|45=2|58=Tag not defined for this message type|371=11|372=X|373=2|10=114|
20241203-15:30:14.000000000 : 8=FIXT.1.1|9=208|35=X|34=3|49=CLIENT|52=20241203-15:30:14.525|56=SERVER|11=12345|38=10|44=9.420|55=HMETAIV|58=Custom FIX message|167=4|268=2|269=0|279=0|299=13169192678404696254|423=9|963=43030|1018=0|1022=HASH|1070=0|1500=5|10=054|
20241203-15:30:14.000000000 : 8=FIXT.1.1|9=120|35=3|34=3|49=SERVER|52=20241203-15:30:14.000|56=CLIENT|45=3|58=Tag not defined for this message type|371=11|372=X|373=2|10=117|
20241203-15:30:15.000000000 : 8=FIXT.1.1|9=208|35=X|34=4|49=CLIENT|52=20241203-15:30:15.530|56=SERVER|11=12345|38=10|44=9.420|55=HMETAIV|58=Custom FIX message|167=4|268=2|269=0|279=0|299=13169192678404696254|423=9|963=43030|1018=0|1022=HASH|1070=0|1500=5|10=052|
20241203-15:30:15.000000000 : 8=FIXT.1.1|9=120|35=3|34=4|49=SERVER|52=20241203-15:30:15.000|56=CLIENT|45=4|58=Tag not defined for this message type|371=11|372=X|373=2|10=120|
20241203-15:30:16.000000000 : 8=FIXT.1.1|9=208|35=X|34=5|49=CLIENT|52=20241203-15:30:16.552|56=SERVER|11=12345|38=10|44=9.420|55=HMETAIV|58=Custom FIX message|167=4|268=2|269=0|279=0|299=13169192678404696254|423=9|963=43030|1018=0|1022=HASH|1070=0|1500=5|10=058|
20241203-15:30:16.000000000 : 8=FIXT.1.1|9=120|35=3|34=5|49=SERVER|52=20241203-15:30:16.000|56=CLIENT|45=5|58=Tag not defined for this message type|371=11|372=X|373=2|10=123|
