20241202-21:25:17.000000000 : 8=FIX.4.4|9=93|35=A|34=1|49=YOUR_SENDER_COMP_ID|52=20241202-21:25:17.213|56=YOUR_TARGET_COMP_ID|98=0|108=30|10=207|
20241202-21:25:47.000000000 : 8=FIX.4.4|9=93|35=A|34=2|49=YOUR_SENDER_COMP_ID|52=20241202-21:25:47.074|56=YOUR_TARGET_COMP_ID|98=0|108=30|10=216|
20241202-21:26:17.000000000 : 8=FIX.4.4|9=93|35=A|34=3|49=YOUR_SENDER_COMP_ID|52=20241202-21:26:17.330|56=YOUR_TARGET_COMP_ID|98=0|108=30|10=210|
20241202-21:28:00.000000000 : 8=FIX.4.4|9=93|35=A|34=4|49=YOUR_SENDER_COMP_ID|52=20241202-21:28:00.847|56=YOUR_TARGET_COMP_ID|98=0|108=30|10=218|
20241202-21:30:14.000000000 : 8=FIX.4.4|9=69|35=A|34=1|49=CLIENT1|52=20241202-21:30:14.419|56=SERVER1|98=0|108=30|10=243|
20241202-21:30:44.000000000 : 8=FIX.4.4|9=69|35=A|34=2|49=CLIENT1|52=20241202-21:30:44.562|56=SERVER1|98=0|108=30|10=246|
20241202-21:32:16.000000000 : 8=FIX.4.4|9=69|35=A|34=3|49=CLIENT1|52=20241202-21:32:16.541|56=SERVER1|98=0|108=30|10=245|
20241202-21:32:46.000000000 : 8=FIX.4.4|9=69|35=A|34=4|49=CLIENT1|52=20241202-21:32:46.679|56=SERVER1|98=0|108=30|10=005|
20241202-21:33:16.000000000 : 8=FIX.4.4|9=69|35=A|34=5|49=CLIENT1|52=20241202-21:33:16.895|56=SERVER1|98=0|108=30|10=004|
20241202-21:33:47.000000000 : 8=FIX.4.4|9=69|35=A|34=6|49=CLIENT1|52=20241202-21:33:47.098|56=SERVER1|98=0|108=30|10=004|
20241202-21:34:17.000000000 : 8=FIX.4.4|9=69|35=A|34=7|49=CLIENT1|52=20241202-21:34:17.311|56=SERVER1|98=0|108=30|10=247|
20241202-21:34:47.000000000 : 8=FIX.4.4|9=69|35=A|34=8|49=CLIENT1|52=20241202-21:34:47.559|56=SERVER1|98=0|108=30|10=009|
20241202-21:35:17.000000000 : 8=FIX.4.4|9=69|35=A|34=9|49=CLIENT1|52=20241202-21:35:17.802|56=SERVER1|98=0|108=30|10=255|
20241202-21:35:48.000000000 : 8=FIX.4.4|9=70|35=A|34=10|49=CLIENT1|52=20241202-21:35:48.028|56=SERVER1|98=0|108=30|10=035|
20241202-21:36:18.000000000 : 8=FIX.4.4|9=70|35=A|34=11|49=CLIENT1|52=20241202-21:36:18.246|56=SERVER1|98=0|108=30|10=036|
20241202-21:36:48.000000000 : 8=FIX.4.4|9=70|35=A|34=12|49=CLIENT1|52=20241202-21:36:48.458|56=SERVER1|98=0|108=30|10=045|
20241202-21:37:18.000000000 : 8=FIX.4.4|9=70|35=A|34=13|49=CLIENT1|52=20241202-21:37:18.670|56=SERVER1|98=0|108=30|10=040|
20241202-21:37:48.000000000 : 8=FIX.4.4|9=70|35=A|34=14|49=CLIENT1|52=20241202-21:37:48.909|56=SERVER1|98=0|108=30|10=049|
20241202-21:38:19.000000000 : 8=FIX.4.4|9=70|35=A|34=15|49=CLIENT1|52=20241202-21:38:19.129|56=SERVER1|98=0|108=30|10=043|
20241202-21:38:49.000000000 : 8=FIX.4.4|9=70|35=A|34=16|49=CLIENT1|52=20241202-21:38:49.328|56=SERVER1|98=0|108=30|10=048|
20241202-21:39:19.000000000 : 8=FIX.4.4|9=70|35=A|34=17|49=CLIENT1|52=20241202-21:39:19.530|56=SERVER1|98=0|108=30|10=042|
20241202-21:39:49.000000000 : 8=FIX.4.4|9=70|35=A|34=18|49=CLIENT1|52=20241202-21:39:49.758|56=SERVER1|98=0|108=30|10=058|
20241202-21:40:19.000000000 : 8=FIX.4.4|9=70|35=A|34=19|49=CLIENT1|52=20241202-21:40:19.949|56=SERVER1|98=0|108=30|10=050|
20241202-21:40:50.000000000 : 8=FIX.4.4|9=70|35=A|34=20|49=CLIENT1|52=20241202-21:40:50.188|56=SERVER1|98=0|108=30|10=032|
20241202-21:41:20.000000000 : 8=FIX.4.4|9=70|35=A|34=21|49=CLIENT1|52=20241202-21:41:20.395|56=SERVER1|98=0|108=30|10=031|
20241202-21:41:50.000000000 : 8=FIX.4.4|9=70|35=A|34=22|49=CLIENT1|52=20241202-21:41:50.611|56=SERVER1|98=0|108=30|10=026|
20241202-21:42:20.000000000 : 8=FIX.4.4|9=70|35=A|34=23|49=CLIENT1|52=20241202-21:42:20.822|56=SERVER1|98=0|108=30|10=029|
20241202-21:42:51.000000000 : 8=FIX.4.4|9=70|35=A|34=24|49=CLIENT1|52=20241202-21:42:51.030|56=SERVER1|98=0|108=30|10=025|
20241202-21:43:21.000000000 : 8=FIX.4.4|9=70|35=A|34=25|49=CLIENT1|52=20241202-21:43:21.225|56=SERVER1|98=0|108=30|10=030|
20241202-21:43:51.000000000 : 8=FIX.4.4|9=70|35=A|34=26|49=CLIENT1|52=20241202-21:43:51.454|56=SERVER1|98=0|108=30|10=038|
20241202-21:44:21.000000000 : 8=FIX.4.4|9=70|35=A|34=27|49=CLIENT1|52=20241202-21:44:21.658|56=SERVER1|98=0|108=30|10=043|
20241202-21:44:51.000000000 : 8=FIX.4.4|9=70|35=A|34=28|49=CLIENT1|52=20241202-21:44:51.862|56=SERVER1|98=0|108=30|10=044|
20241202-21:45:22.000000000 : 8=FIX.4.4|9=70|35=A|34=29|49=CLIENT1|52=20241202-21:45:22.037|56=SERVER1|98=0|108=30|10=038|
20241202-21:45:52.000000000 : 8=FIX.4.4|9=70|35=A|34=30|49=CLIENT1|52=20241202-21:45:52.256|56=SERVER1|98=0|108=30|10=036|
20241202-21:46:22.000000000 : 8=FIX.4.4|9=70|35=A|34=31|49=CLIENT1|52=20241202-21:46:22.465|56=SERVER1|98=0|108=30|10=037|
20241202-21:46:52.000000000 : 8=FIX.4.4|9=70|35=A|34=32|49=CLIENT1|52=20241202-21:46:52.664|56=SERVER1|98=0|108=30|10=042|
20241202-21:47:22.000000000 : 8=FIX.4.4|9=70|35=A|34=33|49=CLIENT1|52=20241202-21:47:22.918|56=SERVER1|98=0|108=30|10=043|
20241202-21:47:53.000000000 : 8=FIX.4.4|9=70|35=A|34=34|49=CLIENT1|52=20241202-21:47:53.099|56=SERVER1|98=0|108=30|10=048|
20241202-21:48:23.000000000 : 8=FIX.4.4|9=70|35=A|34=35|49=CLIENT1|52=20241202-21:48:23.321|56=SERVER1|98=0|108=30|10=035|
20241202-21:49:09.000000000 : 8=FIX.4.4|9=70|35=A|34=36|49=CLIENT1|52=20241202-21:49:09.322|56=SERVER1|98=0|108=30|10=042|
20241203-00:44:24.000000000 : 8=FIXT.1.1|9=76|35=A|34=1|49=CLIENT1|52=20241203-00:44:24.969|56=SERVER1|98=0|108=30|1137=9|10=144|
20241203-00:44:47.000000000 : 8=FIXT.1.1|9=76|35=A|34=2|49=CLIENT1|52=20241203-00:44:47.493|56=SERVER1|98=0|108=30|1137=9|10=142|
20241203-00:45:04.000000000 : 8=FIXT.1.1|9=76|35=A|34=3|49=CLIENT1|52=20241203-00:45:04.540|56=SERVER1|98=0|108=30|1137=9|10=130|
20241203-00:45:34.000000000 : 8=FIXT.1.1|9=76|35=A|34=4|49=CLIENT1|52=20241203-00:45:34.672|56=SERVER1|98=0|108=30|1137=9|10=140|
20241203-00:46:04.000000000 : 8=FIXT.1.1|9=76|35=A|34=5|49=CLIENT1|52=20241203-00:46:04.940|56=SERVER1|98=0|108=30|1137=9|10=137|
20241203-00:46:35.000000000 : 8=FIXT.1.1|9=76|35=A|34=6|49=CLIENT1|52=20241203-00:46:35.166|56=SERVER1|98=0|108=30|1137=9|10=142|
20241203-00:47:05.000000000 : 8=FIXT.1.1|9=76|35=A|34=7|49=CLIENT1|52=20241203-00:47:05.424|56=SERVER1|98=0|108=30|1137=9|10=138|
20241203-00:47:35.000000000 : 8=FIXT.1.1|9=76|35=A|34=8|49=CLIENT1|52=20241203-00:47:35.635|56=SERVER1|98=0|108=30|1137=9|10=146|
20241203-00:48:05.000000000 : 8=FIXT.1.1|9=76|35=A|34=9|49=CLIENT1|52=20241203-00:48:05.864|56=SERVER1|98=0|108=30|1137=9|10=149|
20241203-15:34:56.000000000 : 8=FIXT.1.1|9=74|35=A|34=3|49=CLIENT|52=20241203-15:34:56.000|56=SERVER|98=0|108=30|1137=9|10=032|
20241218-11:09:43.000000000 : 8=FIXT.1.1|9=83|35=A|34=1|49=CLIENT1|52=20241218-11:09:43.000|56=SERVER1|98=0|108=30|1137=FIX50SP2|10=104|
20241218-11:10:12.000000000 : 8=FIXT.1.1|9=83|35=A|34=2|49=CLIENT1|52=20241218-11:10:12.000|56=SERVER1|98=0|108=30|1137=FIX50SP2|10=093|
20241218-11:10:48.000000000 : 8=FIXT.1.1|9=83|35=A|34=3|49=CLIENT1|52=20241218-11:10:48.000|56=SERVER1|98=0|108=30|1137=FIX50SP2|10=103|
20241218-11:11:19.000000000 : 8=FIXT.1.1|9=83|35=A|34=4|49=CLIENT1|52=20241218-11:11:19.000|56=SERVER1|98=0|108=30|1137=FIX50SP2|10=103|
20241218-11:11:26.000000000 : 8=FIXT.1.1|9=83|35=A|34=5|49=CLIENT1|52=20241218-11:11:26.000|56=SERVER1|98=0|108=30|1137=FIX50SP2|10=102|
20241218-11:11:56.000000000 : 8=FIXT.1.1|9=83|35=A|34=6|49=CLIENT1|52=20241218-11:11:56.000|56=SERVER1|98=0|108=30|1137=FIX50SP2|10=106|
20241218-11:12:05.000000000 : 8=FIXT.1.1|9=83|35=A|34=7|49=CLIENT1|52=20241218-11:12:05.000|56=SERVER1|98=0|108=30|1137=FIX50SP2|10=102|
20241218-11:19:35.000000000 : 8=FIXT.1.1|9=83|35=A|34=8|49=CLIENT1|52=20241218-11:19:35.000|56=SERVER1|98=0|108=30|1137=FIX50SP2|10=113|
20241218-11:20:05.000000000 : 8=FIXT.1.1|9=83|35=A|34=9|49=CLIENT1|52=20241218-11:20:05.000|56=SERVER1|98=0|108=30|1137=FIX50SP2|10=103|
20241218-11:20:35.000000000 : 8=FIXT.1.1|9=84|35=A|34=10|49=CLIENT1|52=20241218-11:20:35.000|56=SERVER1|98=0|108=30|1137=FIX50SP2|10=147|
20241218-11:21:05.000000000 : 8=FIXT.1.1|9=84|35=A|34=11|49=CLIENT1|52=20241218-11:21:05.000|56=SERVER1|98=0|108=30|1137=FIX50SP2|10=146|
20250123-19:38:25.000000000 : 8=FIXT.1.1|9=91|35=A|34=1|49=PSHAVBETA|56=BBGBETA|52=20250123-19:38:25.505|98=0|108=30|141=Y|1137=FIX50SP2|10=048|
20250123-19:38:57.000000000 : 8=FIXT.1.1|9=91|35=A|34=1|49=PSHAVBETA|56=BBGBETA|52=20250123-19:38:57.188|98=0|108=30|141=Y|1137=FIX50SP2|10=060|
20250123-19:39:30.000000000 : 8=FIXT.1.1|9=91|35=A|34=1|49=PSHAVBETA|56=BBGBETA|52=20250123-19:39:30.203|98=0|108=30|141=Y|1137=FIX50SP2|10=040|
20250123-19:40:03.000000000 : 8=FIXT.1.1|9=91|35=A|34=1|49=PSHAVBETA|56=BBGBETA|52=20250123-19:40:03.223|98=0|108=30|141=Y|1137=FIX50SP2|10=034|
20250123-19:40:36.000000000 : 8=FIXT.1.1|9=91|35=A|34=1|49=PSHAVBETA|56=BBGBETA|52=20250123-19:40:36.463|98=0|108=30|141=Y|1137=FIX50SP2|10=046|
20250123-19:41:07.000000000 : 8=FIXT.1.1|9=91|35=A|34=1|49=PSHAVBETA|56=BBGBETA|52=20250123-19:41:07.488|98=0|108=30|141=Y|1137=FIX50SP2|10=052|
20250123-19:41:34.000000000 : 8=FIXT.1.1|9=91|35=A|34=1|49=PSHAVBETA|56=BBGBETA|52=20250123-19:41:34.690|98=0|108=30|141=Y|1137=FIX50SP2|10=047|
20250123-21:25:16.000000000 : 8=FIXT.1.1|9=91|35=A|34=1|49=PSHAVBETA|56=BBGBETA|52=20250123-21:25:16.986|98=0|108=30|141=Y|1137=FIX50SP2|10=050|
20250124-11:46:59.000000000 : 8=FIXT.1.1|9=91|35=A|34=1|49=PSHAVBETA|56=BBGBETA|52=20250124-11:46:59.640|98=0|108=30|141=Y|1137=FIX50SP2|10=047|
20250124-11:47:29.000000000 : 8=FIXT.1.1|9=91|35=A|34=1|49=PSHAVBETA|56=BBGBETA|52=20250124-11:47:29.712|98=0|108=30|141=Y|1137=FIX50SP2|10=045|
20250124-11:48:00.000000000 : 8=FIXT.1.1|9=91|35=A|34=1|49=PSHAVBETA|56=BBGBETA|52=20250124-11:48:00.737|98=0|108=30|141=Y|1137=FIX50SP2|10=042|
20250124-11:48:33.000000000 : 8=FIXT.1.1|9=91|35=A|34=1|49=PSHAVBETA|56=BBGBETA|52=20250124-11:48:33.759|98=0|108=30|141=Y|1137=FIX50SP2|10=052|
20250124-11:49:06.000000000 : 8=FIXT.1.1|9=91|35=A|34=1|49=PSHAVBETA|56=BBGBETA|52=20250124-11:49:06.763|98=0|108=30|141=Y|1137=FIX50SP2|10=048|
20250124-11:49:39.000000000 : 8=FIXT.1.1|9=91|35=A|34=1|49=PSHAVBETA|56=BBGBETA|52=20250124-11:49:39.787|98=0|108=30|141=Y|1137=FIX50SP2|10=060|
20250124-11:50:12.000000000 : 8=FIXT.1.1|9=91|35=A|34=1|49=PSHAVBETA|56=BBGBETA|52=20250124-11:50:12.835|98=0|108=30|141=Y|1137=FIX50SP2|10=037|
20250124-11:50:45.000000000 : 8=FIXT.1.1|9=91|35=A|34=1|49=PSHAVBETA|56=BBGBETA|52=20250124-11:50:45.836|98=0|108=30|141=Y|1137=FIX50SP2|10=044|
20250124-11:51:18.000000000 : 8=FIXT.1.1|9=91|35=A|34=1|49=PSHAVBETA|56=BBGBETA|52=20250124-11:51:18.842|98=0|108=30|141=Y|1137=FIX50SP2|10=042|
20250124-11:51:51.000000000 : 8=FIXT.1.1|9=91|35=A|34=1|49=PSHAVBETA|56=BBGBETA|52=20250124-11:51:51.868|98=0|108=30|141=Y|1137=FIX50SP2|10=047|
20250124-11:52:25.000000000 : 8=FIXT.1.1|9=91|35=A|34=1|49=PSHAVBETA|56=BBGBETA|52=20250124-11:52:24.977|98=0|108=30|141=Y|1137=FIX50SP2|10=049|
20250124-11:52:57.000000000 : 8=FIXT.1.1|9=91|35=A|34=1|49=PSHAVBETA|56=BBGBETA|52=20250124-11:52:57.902|98=0|108=30|141=Y|1137=FIX50SP2|10=043|
20250124-12:43:38.000000000 : 8=FIXT.1.1|9=147|35=X|34=2|49=PSHAVBETA|56=BBGBETA|52=20250124-12:43:38.019|1022=HASH|963=43030|268=1|279=0|269=2|48=ETHEIV|22=8|1018=0|270=59.1984786030765|1070=0|10=014|
20250124-12:44:05.000000000 : 8=FIXT.1.1|9=91|35=A|34=1|49=PSHAVBETA|56=BBGBETA|52=20250124-12:44:05.908|98=0|108=30|141=Y|1137=FIX50SP2|10=044|
20250124-12:44:06.000000000 : 8=FIXT.1.1|9=91|35=A|34=1|49=PSHAVBETA|56=BBGBETA|52=20250124-12:44:06.905|98=0|108=30|141=Y|1137=FIX50SP2|10=042|
20250124-12:44:38.000000000 : 8=FIXT.1.1|9=91|35=A|34=1|49=PSHAVBETA|56=BBGBETA|52=20250124-12:44:38.926|98=0|108=30|141=Y|1137=FIX50SP2|10=050|
20250124-12:44:39.000000000 : 8=FIXT.1.1|9=91|35=A|34=1|49=PSHAVBETA|56=BBGBETA|52=20250124-12:44:39.918|98=0|108=30|141=Y|1137=FIX50SP2|10=052|
20250124-12:45:12.000000000 : 8=FIXT.1.1|9=91|35=A|34=1|49=PSHAVBETA|56=BBGBETA|52=20250124-12:45:12.001|98=0|108=30|141=Y|1137=FIX50SP2|10=027|
20250124-12:45:12.000000000 : 8=FIXT.1.1|9=91|35=A|34=1|49=PSHAVBETA|56=BBGBETA|52=20250124-12:45:12.978|98=0|108=30|141=Y|1137=FIX50SP2|10=050|
